S01100004D656E736167656E732E7372656372
S21400600000330020B1610000AD610000AD6100000A
S214006010000000000000000000000000000000007B
S214006020000000000000000000000000AD6100005D
S2140060300000000000000000AD61000061D000001C
S214006040AD610000AD610000AD610000759000001C
S2140060505DE20000AD610000AD6100003D3801006A
S214006060AD610000AD610000AD610000AD610000F3
S214006070BD710000AD610000AD610000AD610000C3
S214006080AD610000AD610000316E0000AD61000042
S214006090AD6100000000000000000000AD610000DF
S2140060A0AD610000AD610000AD610000AD610000B3
S2140060B00000000010B5064C2378002B07D1054BD6
S2140060C0002B02D0044800E000BF0123237010BD5F
S2140060D08405002000000000186E0100084B10B573
S2140060E0002B03D00749084800E000BF07480368B4
S2140060F0002B00D110BD064B002BFBD09847F9E7CC
S2140061000000000088050020186E0100186E0100CF
S2140061100000000030B585B0114C5C436423089D38
S2140061206B43E418099B9C4664440E4B5843FA2381
S2140061309B005943401880180A2202A90A4DA84716
S2140061400A2269462000A847084C02A92000084BEE
S214006150984769462000074B984705B030BDC046B3
S21400616010270000A0860100D16201000C0A002062
S214006170896401003D640100F0B583B00190094FC9
S214006180094D2E0005E0A8470A300400B047A0429B
S214006190FCD900220C210198B8470028F3D003B0A0
S2140061A0F0BDC046816800002D900000FEE70000AC
S2140061B0F8B52A4A2A4B9A4211D01A00294B9A421D
S2140061C00DD2294A03339B1A9B0801339B000022F9
S2140061D0234822498C58845004329A42FAD1234AE2
S2140061E0234B9A420AD2D34321495B1803218B439F
S2140061F004339B18002102C29342FCD11D4AFF21A2
S2140062001D4B8B439360FD3990235B001B4AD15096
S2140062101B4AD3780325AB4302242343D370D37899
S2140062200C27BB4308263343D370164B987B30228B
S2140062309043202210439873997BB9433143997356
S2140062409A7BAA4322439A730F4A536880210B43D2
S21400625053600E4B98470E4B9847FEE7186E0100AA
S2140062600000002084050020040000208405002093
S214006270FC12002000ED00E000600000007000410D
S21400628000500041004800410040004159620100B2
S2140062904997000010B5064B9847FA204000054B7A
S2140062A098470548054B9847054B984710BDC0468C
S2140062B075830000E5860000E0660100E1850000C9
S2140062C0B9640000F0B583B02F4B1B68A02B01DD2E
S2140062D003B0F0BD2D4DA8472B4C63682268A1681B
S2140062E0E0682B4F3E68019626690096294EB04717
S2140062F029482A4B9847A847294E217B320029482F
S214006300294DA847217A32002848A847217832002C
S2140063102748A847217932002648A847217C320022
S2140063202548A847397832002448A8472448254DF0
S214006330A8470C211848244B98472448A8472368A8
S2140063409F2B16DDA02B1AD021481E4B9847214BB9
S2140063509847214B18601F4E204D1C00B047286000
S21400636023680A339842F9D9074A13680133136041
S214006370AEE71B48134CA0471A48A047E7E71A4861
S214006380104B9847E3E7C0460C000020ED63000082
S214006390A0050020156100000C0A002079610000AD
S2140063A0AC670100F866010041860000086701003E
S2140063B01867010028670100386701004867010078
S2140063C058670100E185000019860000606701003B
S2140063D0B06701002D900000080A0020180A00206F
S2140063E064670100806701009867010080B500AF10
S2140063F0034B80225201DA61C046BD4680BDC046CE
S2140064000044004180B582B000AF0200FB1D1A7048
S214006410064BFA1D127811001F220A4001219140F6
S2140064200A001A60C046BD4602B080BD00E100E02A
S21400643080B582B000AF78607B6800221A707B68F7
S21400644000229A707B6800229A807B6800229A71EC
S2140064507B6800221A817B6800225A707B680022C3
S2140064609A727B680022DA727B6800221A737B6855
S21400647000229A737B6800225A737B6800221A7483
S2140064807B6800225A617B6800229A617B68002242
S2140064901A777B6800221A627B6800225A627B6841
S2140064A000221A857B6800225A857B6800229A851E
S2140064B0C046BD4602B080BD90B583B002AF494B22
S2140064C000229A70484B802212055A611420474BCE
S2140064D09847454B802212059A611420434B9847F3
S2140064E0434B984703001A0001235340DBB21A1CA3
S2140064F001231340DAB23B4B01210A4090189A78E8
S21400650002218A43111C021C0A439A70394B984791
S214006510394B9847394B9847394B9847394B9847EA
S214006520394B984703001A0001235340DBB21A1C6C
S21400653001231340DAB22B4B01210A4010009A784F
S21400654001218A43111C021C0A439A702F48032318
S21400655000930A23002209212D4CA047031E07D0D2
S214006560204B03222B499B18082218002A4B9847D9
S2140065702A4803230093122300220921244CA04713
S214006580031E07D0174B0B2222499B181022180017
S214006590214B9847224B9847154B98470300190004
S2140065A0104B9B789B07DB0FDBB21A000B001343E4
S2140065B0DBB21A1C01231340DAB20A4B01210A404F
S2140065C090189A7802218A43111C021C0A439A707A
S2140065D0044B9B785A425341DBB21800BD4601B0CB
S2140065E090BDC046A40A002000440041E586000095
S2140065F0758F00003D700000C1700000E16C000067
S214006600056D0000E96D000025660000C867010002
S214006610DD660000640A002025630100D4670100DF
S214006620D567000080B582B000AFFB1D03221A704C
S214006630BB1D00221A702DE01F4B98471F4B984732
S2140066401F4B042118001F4B98470A201E4B9847E3
S214006650C0461E4B1B889B06DB0FDBB2002B06D109
S2140066601A4B1B88DB06DB0FDBB2002BF1D0174B77
S2140066701B88DB06DB0FDBB2012B0BD11449154B55
S21400668004221800144B9847031E03D1BB1D012299
S2140066901A7006E0FB1D1B78FA1D591E1170002BA0
S2140066A0CAD1054B9847054B9847BB1D1B78180069
S2140066B0BD4602B080BDC046E96D0000E16C00003A
S2140066C0E067010031710000656D0000740D002068
S2140066D0640A0020E8670100D962010080B586B030
S2140066E000AFF86008007A6019000B23FB18021C44
S2140066F01A700A23FB180A1C1A701723FB180022AC
S2140067001A7043E02B4B98472B4B98470B23FB18EC
S2140067101A78FB6811001800284B98479620284BDB
S2140067209847C046274B1B889B06DB0FDBB2002B27
S21400673006D1244B1B88DB06DB0FDBB2002BF1D027
S214006740204B1B88DB06DB0FDBB2012B1ED11E4B5A
S2140067501B78DBB20A22BA1812789A4216D17B68E6
S214006760002B0ED00A23FB181A787968174B1800EE
S214006770174B9847031E09D11723FB1801221A70DE
S2140067800DE01723FB1801221A7008E02023FB18DF
S2140067901B782022BA18591E1170002BB2D1054B57
S2140067A09847054B98471723FB181B781800BD46DB
S2140067B006B080BDE96D0000E16C0000317100009C
S2140067C0656D0000740D0020630A0020640A002036
S2140067D0D962010090B585B002AFFB1D00221A7089
S2140067E0BB1D05221A7027E01D4A1E480123009390
S2140067F0042308211C4CA047031E06D01B4B012275
S2140068005A70FB1D01221A701DE0184B9B7802225D
S2140068101340DBB2002B0FD1154B984703001A002C
S21400682001235340DBB2002B06D0104B01225A70D6
S214006830FB1D01221A7006E0BB1D1B78BA1D591EEF
S2140068401170002BD0D10B4B98470B4B98470B4B36
S2140068509847FB1D1B781800BD4603B090BDC04688
S214006860E8670100F0670100DD660000A40A00206A
S214006870758F0000FD700000E96D0000E16C0000FF
S21400688090B58DB002AF786008001100FB1C021CAA
S2140068901A70BB1C0A1C1A706A4B5B78012B05D059
S2140068A0694B1800694B98470023C6E0684B984729
S2140068B06849942280231B048B500120664B98471E
S2140068C06449982280231B048B503220624B9847E1
S2140068D0624803230093052300220821604CA0474A
S2140068E003001A0001235340DBB2002B03D05D4B9C
S2140068F098470023A1E05C4B1B78DBB2302B04D01A
S214006900594B9B78DBB2322B12D8584A584803238F
S214006910009304230721524CA04703001A000123CA
S2140069205340DBB2002B03D04E4B9847002384E045
S2140069300823F9184F4A0B00106818609088988052
S21400694092799A710723CB181922002118004A4B16
S2140069509847FB1C1A780823FB18991D7B681800BB
S214006960464B9847464B9847464B9847BB1C1B7868
S21400697001225340DBB2002B1FD0324B02225A704A
S214006980414B1800414B9847FB1C1B7803335B00B8
S2140069900822BA180D21D154FB1C1B785B00073364
S2140069A00822BA180A21D154FB1C1B7804335B005A
S2140069B00822BA180021D1542EE0224B03225A7026
S2140069C0334B1800314B9847FB1C1B7803335B0096
S2140069D00822BA182C21D154FB1C1B785B00073305
S2140069E00822BA183121D154FB1C1B7804335B00F3
S2140069F00822BA180D21D154FB1C1B785B00093302
S214006A000822BA180A21D154FB1C1B7805335B00F8
S214006A100822BA180021D1540823FB1818001D4B71
S214006A2098470300DAB20823FB18110018001A4B27
S214006A3098473220084B984701231800BD460BB0F4
S214006A4090BDC046A40A0020FC670100E185000056
S214006A50C170000000440041E58600001C6801008B
S214006A60DD660000D5670000640A0020E8670100C4
S214006A702868010030680100A9630100F58C000059
S214006A80E96D0000E16C000070170000656D000005
S214006A9060EA0000996401003171000080B582B0A0
S214006AA000AFFB1D00221A702E4B5B78032B19D00B
S214006AB0042B2CD0022B00D049E02B4B1B78DBB2EA
S214006AC0042B0BD129492A4B04221800294B98473E
S214006AD0031E37D1FB1D01221A7033E0FB1D022274
S214006AE01A702FE0204B1B78DBB2042B0BD11F490A
S214006AF01F4B042218001F4B9847031E24D1194B26
S214006B0004225A702BE0FB1D04221A701CE0164B60
S214006B101B78DBB2152B11D11749154B0322180031
S214006B20144B9847031E11D11449154B0822180020
S214006B30144B9847FB1D03221A7008E0FB1D042225
S214006B401A7003E0C04602E0C04600E0C0460E4BA6
S214006B509847FB1D1B7818000C4B9847C046BD464F
S214006B6002B080BDA40A0020630A0020E867010086
S214006B70640A0020D962010050680100BF0A0020A4
S214006B80670A0020518D0000D5670000E16B000009
S214006B9080B582B000AFFB1D00221A700D4B5B78EB
S214006BA0022B03D00ADB042B08DC03E0FB1D0222C9
S214006BB01A7004E0FB1D04221A7000E0C046064B63
S214006BC09847FB1D1B781800044B9847C046BD46E7
S214006BD002B080BDA40A0020D5670000E16B00006B
S214006BE080B582B000AF0200FB1D1A70FB1D1B783B
S214006BF0022B0BD002DC012B05D010E0032B08D0B3
S214006C00042B09D00BE0084B984708E0074B984741
S214006C1005E0074B984702E0064B9847C046C0463B
S214006C20BD4602B080BDC046556E00005F6E0000D7
S214006C30696E0000736E000080B582B000AF02007F
S214006C40FB1D1A70FB1D1B78202B39D01E4B1B78A2
S214006C50DBB25A1CD1B21C4A117019001B4BFA1D2C
S214006C6012785A54184B1B78DBB23F2B03D9164BBD
S214006C7000221A7025E0FB1D1B780A2B21D1124B2F
S214006C801B78DBB2023B114AD35CDBB20D2B18D16A
S214006C900D4B1B78DBB21A000C490D4B18000D4B40
S214006CA09847094B1B78DAB20B4B1A70064B00223A
S214006CB01A700A4A138810210B431380C04600E05E
S214006CC0C046BD4602B080BDC70A00201C0A002090
S214006CD0640A002025630100630A0020740D00206A
S214006CE080B500AF054B00221A70054A13881021A4
S214006CF08B431380C046BD4680BDC046C70A0020F1
S214006D00740D002080B58EB000AF3B1D1800104BF0
S214006D1098473B1D02221A703B1D00229A803B1D9D
S214006D2000229A703B1D00229A733B1D01225A7363
S214006D303A1D0849084B1800084B98471220084B84
S214006D409847044B10225A73C046BD460EB080BD0D
S214006D5031640000002C0042C80A0020ED7E0000CE
S214006D600564000080B582B000AF0200BB1D1A802B
S214006D70C0461C4BDB7BDBB25BB2002BF9DB194A4F
S214006D80184B1B889BB202218B439BB21380C046D4
S214006D90144BDB7BDBB25BB2002BF9DB114ABB1D6D
S214006DA01B8813830F4B10225A73C0460D4BDB7B98
S214006DB0DBB25BB2002BF9DB0A4B00221A82C0461C
S214006DC0084BDB7BDBB25BB2002BF9DB054A054BDD
S214006DD01B889BB202210B439BB21380C046BD4664
S214006DE002B080BD002C004280B500AF0E4B3B22A7
S214006DF01A730D4B3B229A73C0460B4BDB7BDBB200
S214006E005BB2002BF9DB084A074B1B889BB20221BA
S214006E108B439BB21380054A138820218B43138033
S214006E20C046BD4680BDC046002C0042740D002002
S214006E3080B500AF054B10229A73054A13882021AF
S214006E400B431380C046BD4680BDC046002C0042A2
S214006E50740D002080B500AFC046BD4680BD80B52D
S214006E6000AFC046BD4680BD80B500AFC046BD463B
S214006E7080BD80B500AFC046BD4680BD80B582B03F
S214006E8000AF0200FB1D1A70064BFA1D12781100A7
S214006E901F220A40012191400A001A60C046BD46E2
S214006EA002B080BD00E100E080B582B000AF020015
S214006EB0FB1D1A70074AFB1D1B7819001F230B4089
S214006EC0012199400B0019008023D150C046BD46D1
S214006ED002B080BD00E100E080B584B000AF78600D
S214006EE07B681B68FB60FB68DB695A1E9341DBB25C
S214006EF01800BD4604B080BD80B582B000AF786093
S214006F00C0467B681800044B9847031EF9D1C0465C
S214006F10BD4602B080BDC046D96E000080B582B0C6
S214006F2000AF78607B688022D2051A607B680022FA
S214006F305A607B68FF221A817B6800229A727B68FF
S214006F400022DA727B68962292011A627B682422FB
S214006F50012199547B682522012199547B682622B9
S214006F60002199547B682722002199547B680022CF
S214006F709A627B6888225203DA607B682C220021A2
S214006F8099547B682D22002199547B6800221A634D
S214006F907B6800225A637B6800229A637B68002223
S214006FA0DA637B6800225A617B6800221A827B685B
S214006FB00022DA767B6800221A767B6800221A772F
S214006FC07B6800225A767B6813229A767B680022BA
S214006FD05A77C046BD4602B080BD000080B584B07A
S214006FE000AF78607B681B68FB607B681800064B08
S214006FF09847FB681B6802221A43FB681A60C04663
S214007000BD4604B080BDC046F96E000080B584B0B1
S21400701000AF78607B681B68FB607B681800064BD7
S2140070209847FB681B68022293431A00FB681A60A5
S214007030C046BD4604B080BDF96E000080B590B075
S21400704000AF3B001800174B98473B002D2200214D
S21400705099543B00962292011A623B00802252030A
S214007060DA603B00104A1A633B00104A5A633B0042
S214007070012252429A633B0001225242DA630C4BD1
S2140070809847031E09D0C0463A000A490A4B180022
S2140070900A4B9847031EF7D1C046C046BD4610B0FF
S2140070A080BDC0461D6F00000200160002001700DB
S2140070B0199B000000140042100B002039760000D7
S2140070C080B500AF084B1A7804210A431A70074BA4
S2140070D01800074B9847074B04229A750C20064B5E
S2140070E09847C046BD4680BD780D0020100B002096
S2140070F0DD6F0000001400427D6E000080B500AF1A
S214007100074B1A7804218A431A70064B1800064B60
S21400711098470C20054B9847C046BD4680BDC046E4
S214007120780D0020100B00200D700000A96E0000E6
S21400713090B585B000AF78600A00FB1C1A700F236C
S214007140FB1800221A7011E00F23FB181B787A68D0
S214007150D3181A78154B11001800154B98470F23B3
S214007160FB181A780F23FB1801321A700F23FA182F
S214007170FB1C12781B789A42E6D30E4B9B7DDBB243
S2140071801A00022313400CD10A4B02229A75094CAE
S214007190064B1800084B984703009BB22385C04651
S2140071A000E0C046BD4605B090BDC046A80500201C
S2140071B011850000001400427985000080B582B079
S2140071C000AF134B1B7EDAB2BB1D1A80104B9B7DA3
S2140071D0DBB29AB2BB1DB91D09880A401A80BB1DD6
S2140071E01B880422134006D0094B1B8D9BB2DBB2D2
S2140071F01800084B9847BB1D1B880222134002D07C
S214007200054B9847C046C046BD4602B080BDC04646
S21400721000140042396C00001D720000B0B500AFCB
S2140072200A4B18000A4B9847031E08D0094C074B18
S2140072301800094B984703009BB2238503E0054BD3
S21400724002221A75C046BD46B0BDC046A80500203D
S214007250B7850000001400427985000080B582B032
S21400726000AF78607B6800221A70C046BD4602B048
S21400727080BD000080B582B000AF02003960FB1D03
S2140072801A70FB1D1B78012B0AD0022B0FD0002B87
S21400729014D10E4B0D4A91693A680A439A610FE081
S2140072A00A4B0A4AD1693A680A43DA6108E0074B92
S2140072B0064A116A3A680A431A6201E0172300E098
S2140072C000231800BD4602B080BDC0460004004042
S2140072D080B582B000AF78607B6880221A707B68C9
S2140072E000225A707B6801229A707B680022DA704E
S2140072F0C046BD4602B080BD80B500AF054B9B784A
S214007300DBB21A00022313405A1E9341DBB2180068
S214007310BD4680BD0020004180B584B000AF7860D7
S2140073207B681B68FB60FB68DB695A1E9341DBB217
S2140073301800BD4604B080BD80B582B000AF78604E
S214007340C0467B681800044B9847031EF9D1C04618
S214007350BD4602B080BDC04619730000B0B58CB003
S21400736002AF786039607B681B68BB617B681B680E
S2140073701800AB4B984703007B617B6914333B6175
S21400738000237B6200233B620A23FB1800221A803C
S2140073901F23FB1800221A701E23FB1810221A70D7
S2140073A03B681B8A8022D20193421CD08022D201E5
S2140073B0934206DC002B0DD080229201934224D00B
S2140073C035E0C022D201934228D080221202934296
S2140073D012D02CE01F23FB1800221A701E23FB1865
S2140073E010221A7023E01F23FB1800221A701E2397
S2140073F0FB1808221A701AE01F23FB1800221A70C6
S2140074001E23FB1803221A7011E01F23FB1801220B
S2140074101A701E23FB1810221A7008E01F23FB1890
S21400742001221A701E23FB1808221A70C0463B68F9
S2140074301A683B68DB681A433B685B6913433A6823
S214007440128A13433A68127E120213433A682621C0
S214007450525C520713437B621D23FB1800221A70EE
S2140074603B685B68FB60FB68002B1ED080225205E1
S21400747093424FD13B6827229B5C01225340DBB2EC
S214007480002B46D03B681D6A3B69DBB21800654B93
S214007490984701001D23FC180A23FB181A00280031
S2140074A0614B98470300237033E03B6827229B5CC0
S2140074B0002B14D03B68186A3B68996A1D23FC1899
S2140074C01F23FB181D780A23FA181E23FB181B78A7
S2140074D000932B00554DA847030023701AE03B6825
S2140074E01D6A3B69DBB218004E4B98471D23FC18FB
S2140074F01F23FB1819780A23FA181E23FB181B787B
S21400750000930B0001002800484DA8470300237095
S21400751000E0C0461D23FB181B78002B03D01D235C
S214007520FB181B7877E03B685B7E002B03D03B683C
S2140075309A7EBB699A737B6818003D4B98470A236E
S214007540FB181A88BB699A817A6AFB6813437B62C8
S2140075503B6827229B5C01225340DBB2002B03D002
S2140075607B6A042213437B623B685B7E9A023B681D
S2140075701B7F5B021A433B685B7F1B021A433B6818
S21400758024215B5C5B041A433B6825215B5C1B047F
S21400759013433B623B689B7A1A003B6A13433B6289
S2140075A03B68DB7A1A003B6A13433B623B681B89E5
S2140075B0FF2B0BD07B6A8022520413437B623B680E
S2140075C01B891A003B6A13433B6208E03B68DB7E7C
S2140075D0002B04D07B6A8022D20413437B623B6874
S2140075E02C229B5C002B03D1124B9847031E03D022
S2140075F07B6A802213437B627B6818000C4B98479B
S214007600BB693A6A5A607B681800094B9847BB69A1
S2140076107A6A1A6000231800BD460AB0B0BDC0469C
S214007620917D0000399500000B79000089790000F3
S21400763039730000F972000090B593B000AFF8609F
S214007640B9607A603F23FB1800221A70FB68BA689C
S2140076501A60FB681B68BB63FB681B681800634BFB
S214007660984703007B637B6B02333B637B6B14336F
S214007670FB62BB6B1B680122134001D00523B1E0FF
S214007680BB6B1B680222134001D01C23AAE0012218
S2140076903B6B9A40130019000220554B984728234D
S2140076A0FB181800534B98477B682D229A5C2823BA
S2140076B0FB181A70FB6ADBB22822BA1811001800F1
S2140076C04D4B9847FB6ADBB218004C4B98477B68DB
S2140076D02D229B5C00211800494B98477B68DA7A7C
S2140076E0FB685A717B6824229A5CFB689A717B68F7
S2140076F025229A5CFB68DA717B68DA7EFB681A7270
S2140077007B681A7FFB685A723F23FC187A68FB680E
S214007710110018003B4B9847030023703F23FB18CB
S2140077201B78002B03D03F23FB181B785AE024233A
S214007730FB181800344B98472423FB1800225A7075
S2140077402423FB1800229A707B681A6B1423FB18FC
S2140077501A607B685A6B1423FB185A607B689A6B16
S2140077601423FB189A607B68DA6B1423FB18DA6024
S2140077704723FB1800221A702CE04723FB181A78C0
S2140077801423FB189200D3583B643B6C002B09D1A2
S2140077904723FB181A78BB68110018001B4B984744
S2140077A003003B643B6C01330DD03B6CDAB2242300
S2140077B0FB181A703B6C1B0CDBB22422BA181100A3
S2140077C01800134B98474723FB181A784723FB18D3
S2140077D001321A704723FB181B78032BCDD93F23A1
S2140077E0FB181B781800BD4613B090BD917D0000B5
S2140077F0757200005D720000CD93000011940000C9
S214007800497B00005D730000D1720000D57B00004C
S2140078100197000080B582B000AF78607B680022D8
S2140078201A70C046BD4602B080BDF0B58DB000AF40
S214007830B860F9603A607B60002300243B627C629B
S21400784000230024BB61FC613F23FB6253E0FB6A1C
S214007850203B002B04DB01229A4013007B610BE0E7
S214007860FB6A2022D31A0122DA4013000021FA6AAA
S21400787091400A0013437B610122FB6A9A40130081
S2140078803B61BB69FC69DB186441BB61FC61BB689A
S2140078903A691A401500FB687A691A4016002B00F0
S2140078A0334307D0BB6901221343BB61FB69002247
S2140078B01343FB617A68FB699A4219D87A68FB69B8
S2140078C09A4203D13A68BB699A4211D8B969FA69F3
S2140078D03B687C68C91AA2410B001400BB61FC61BE
S2140078E03A6A3B6913433B627A6A7B6913437B625D
S2140078F0FB6A013BFB62FB6A002BA8DA3B6A7C6AE8
S21400790018002100BD460DB0F0BD80B586B000AFB2
S214007910F860B9607A601623FB1800221A80BB68EC
S2140079203B61BB685A08FB689A4201D2402326E0B6
S214007930BB685B083B610AE03A69FB68D31A3B61A7
S2140079401623FB181A881623FB1801321A803A6988
S214007950FB689A42F0D21623FB181622BA18128831
S214007960013A1A801623FB181B88FF2B01D94023E7
S21400797005E07B681622BA1812881A8000231800C1
S214007980BD4606B080BD0000F0B5A1B000AFF864FB
S214007990B9647A644322BA181370002300243B6744
S2140079A07C6700230024BB66FC6600230024BB67BC
S2140079B0FC6700237B66582340229446BC446344FD
S2140079C01A78FB6C5A43BB6C9A4201D94023B3E049
S2140079D04323FB181B78002B3DD1582340229446A6
S2140079E0BC4463441B78DBB23B6100237B61FB6CC9
S2140079F0BB600023FB60524CBA68FB683869796943
S214007A00A04703000C001B00FB650023BB65BB6C96
S214007A103B6000237B60B86DF96D3A687B68494C23
S214007A20A04703000C003B677C67002101223B6FE8
S214007A307C6FC91AA2410B001400BB66FC66BB6EC5
S214007A401B0CFA6E16041E43BB6E1D043300BB6788
S214007A500023FB676AE04323FB181B78012B65D1E4
S214007A60FB6C3B6300237B63582340229446BC4454
S214007A7063441B78DBB2BB620023FB62304CBA6AFD
S214007A80FB6A386B796BA04703000C00BB65FC658E
S214007A90BB6C3B6200237B62BB6DFC6D1A0023004F
S214007AA0386A796A274CA04703000C007B667A6E1A
S214007AB080239B019A4201D940233DE0BB6CBB6109
S214007AC00023FB61B969FA690B005B0F1000C00068
S214007AD0F863F86B1843F8630B00DB00BB63BB6D01
S214007AE0FC6D1A002300B86BF96B164CA047030018
S214007AF00C00BB65FC65BB6DFC6DD9B27B6EDBB262
S214007B00DB00DAB2172340208446BC4463448A1A5A
S214007B101A70172340229446BC4463441B785B03C8
S214007B201A007B6E1343BB670023FB67BB6FFC6FBB
S214007B309AB27B6C1A8000231800BD4621B0F0BDB7
S214007B40E14701002B78000080B584B000AF02004A
S214007B50FB1D1A70BB1D0A1C1A701A4B1B780122DB
S214007B605340DBB2002B03D1BB1D1B78002B1BD070
S214007B700C23FB181800144B98470C23FB18FA1D0F
S214007B8012781A700C23FB18190013200F4B984715
S214007B9013200F4B98470B4BFA1D12785A70094B5F
S214007BA001221A70002308E0064B5B78FA1D127853
S214007BB09A4201D1002300E01D231800BD4604B000
S214007BC080BDC0462C06002015780000CD9300002E
S214007BD01194000080B582B000AF78600A00FB1CEC
S214007BE01A707B684D4A93423FD04C4A934206D85F
S214007BF04B4A93420FD04B4A934221D089E04A4ADF
S214007C00934200D15BE0494A934200D16CE0484A77
S214007C1093423FD07DE0FB1C1B78012B0AD002DC90
S214007C20002B05D075E0022B06D0032B06D070E0A3
S214007C30404B6FE0404B6DE0404B6BE0404B69E0E3
S214007C40FB1C1B78012B0AD002DC002B05D060E061
S214007C50022B06D0032B06D05BE003235AE0394BF9
S214007C6058E0394B56E0394B54E0FB1C1B78012B8F
S214007C700AD002DC002B05D04BE0022B06D0032BEB
S214007C8006D046E0324B45E0324B43E0324B41E013
S214007C90324B3FE0FB1C1B78012B0AD002DC002B8A
S214007CA005D036E0022B06D0032B06D031E02C4B55
S214007CB030E02C4B2EE02C4B2CE02C4B2AE0FB1C0F
S214007CC01B78012B0AD002DC002B05D021E0022B0A
S214007CD006D0032B06D01CE0254B1BE0254B19E0F5
S214007CE0254B17E0254B15E0FB1C1B78012B0AD013
S214007CF002DC002B05D00CE0022B06D0032B06D0AE
S214007D0007E01F4B06E01F4B04E01F4B02E01F4B33
S214007D1000E000231800BD4602B080BD00100042FF
S214007D2000080042000C004200180042001C0042FE
S214007D3000140042030004000300050003000600D0
S214007D40030007000300010003001E0003001F00DD
S214007D50030008000300090003000A0003000B00EC
S214007D6003001000030011000300120003001300BC
S214007D7003000C0003000D0003000E0003000F00BC
S214007D800300160003001700030018000300190084
S214007D9090B58BB000AF78600C23FB180F4A13CA5F
S214007DA013C313CA13C300237B620EE00C23FB1815
S214007DB07A6A9200D3581A007B689A4202D17B6A8C
S214007DC0DBB206E07B6A01337B627B6A052BEDD96A
S214007DD000231800BD460BB090BDC0466468010085
S214007DE080B582B000AF78607B6800221A70C0460B
S214007DF0BD4602B080BD000080B582B000AF020074
S214007E003960FB1D1A70FB1D1B78012B0AD0022B54
S214007E100FD0002B14D10E4B0D4A91693A680A43D5
S214007E209A610FE00A4B0A4AD1693A680A43DA6156
S214007E3008E0074B064A116A3A680A431A6201E0EC
S214007E40172300E000231800BD4602B080BDC046E0
S214007E500004004080B582B000AF78607B68802266
S214007E601A707B6800225A707B6801229A707B68C1
S214007E700022DA70C046BD4602B080BD80B584B030
S214007E8000AF78607B681B68FB60FB68DB7BDBB25F
S214007E901A00802313405A1E9341DBB21800BD46D9
S214007EA004B080BD90B587B000AF78600823FB189B
S214007EB00D4A13CA13C300237B610DE00823FB1889
S214007EC07A699200D2587B689A4202D17B69DBB20B
S214007ED006E07B6901337B617B69022BEED90023C8
S214007EE01800BD4607B090BD7C68010090B58DB007
S214007EF000AFF860B9607A602E23FB1800221A8063
S214007F002D23FB1800221A702C23FB1800221A704F
S214007F102A23FC18BB681800C34B9847030023703D
S214007F202423FB18C14A1188198092789A701C2362
S214007F30FB18BF4A1168196092889A80FB68BA6875
S214007F401A607B689B78082B08D12A23FB181B78BD
S214007F5003330122134001D01723C0E17B689A78CF
S214007F60FB681A71BB681B889BB21A00012313407A
S214007F7001D00523B3E1BB68DB7BDBB21A0010231C
S214007F80134001D01C23AAE1BB681B889BB21A00D1
S214007F900223134001D01C23A1E17B681B7C002B2D
S214007FA017D01823FB181800A24B98477B689B69CC
S214007FB0DAB21823FB181A701823FB1801225A701D
S214007FC07B685B69DBB21822BA18110018009A4B5E
S214007FD098477B681B7F002B17D01823FB181800C8
S214007FE0944B98477B685B6ADAB21823FB181A70C2
S214007FF01823FB1801225A707B681B6ADBB2182212
S214008000BA18110018008C4B98472A23FB181A78C8
S2140080101C23FB185200D35A19000220874B98479E
S2140080207B689B78082B0BD12A23FB181B785A1CDD
S2140080301C23FB185200D35A190002207F4B984786
S2140080401423FB1818007E4B98477B681A78142375
S214008050FB181A702A23FB181B782422BA18D35C44
S2140080601422BA1811001800764B98472A23FB18DA
S2140080701B782422BA18D35C1800734B98477B6889
S2140080809A787B689B791343DBB29AB27B681B892C
S214008090134399B27B689A882E23FB180A431A80EA
S2140080A07B685B78002B08D02E23FB182E22BA188C
S2140080B01288802109010A431A80C046FB6818000E
S2140080C0624B9847031EF9D1BB682E22BA18128855
S2140080D01A807B685B7B002B03D02D23FB180422C1
S2140080E01A707B689B7B002B07D02D23FB182D2254
S2140080F0BA18127801210A431A70C046FB681800A5
S214008100524B9847031EF9D1BB68FF221A712D23E4
S214008110FB181B78002B0BD0C046FB6818004B4B97
S2140081209847031EF9D1BB682D22BA1812785A71E7
S2140081302C23FB187A68927A1A702B23FB180022DD
S2140081401A701CE02B23FB181B787A68D318DB7A8E
S214008150002B0DD02B23FB181B7810229A401300FF
S214008160D9B22C23FB182C22BA1812780A431A709C
S2140081702B23FB181A782B23FB1801321A702B239B
S214008180FB181B78012BDDD9C046FB6818002F4B67
S2140081909847031EF9D1BB682C22BA1812789A7138
S2140081A0C046FB681800294B9847031EF9D1FB68A8
S2140081B01B79042B05D0082B00D16CE0002B47D090
S2140081C08CE0C046FB681800204B9847031EF9D188
S2140081D07B6828229A5CBB681A74C046FB68180045
S2140081E01A4B9847031EF9D17B6829229A5CBB6814
S2140081F01A75C046FB681800144B9847031EF9D141
S2140082007B682A229A5CBB681A76C046FB68180010
S2140082100E4B9847031EF9D17B682B229A5CBB68ED
S2140082205A7600235BE0C046A57E00008868010001
S2140082308C680100557E000001970000F97D000063
S214008240E17D0000CD930000119400007D7E0000CB
S214008250C046FB681800244B9847031EF9D17B687C
S2140082601A8DBB681A82C046FB6818001E4B9847DA
S214008270031EF9D17B685A8DBB681A83C046FB681B
S2140082801800194B9847031EF9D17B689A8DBB6876
S2140082905A83002323E0C046FB681800124B984719
S2140082A0031EF9D17B689A6ABB681A61C046FB68F0
S2140082B018000D4B9847031EF9D17B68DA6ABB6835
S2140082C09A61C046FB681800074B9847031EF9D111
S2140082D07B681A6BBB68DA61002300E0172318007E
S2140082E0BD460DB090BDC0467D7E000080B582B014
S2140082F000AF78607B6880221A707B6800225A7014
S2140083007B6801229A707B680022DA70C046BD4600
S21400831002B080BD80B584B000AF02003960FB1D9E
S2140083201A700C23FB181800104B98470C23FB18E8
S21400833080221A703B681A780C23FB185A703B6828
S2140083405A780C23FB189A703B689A780C23FB1813
S214008350DA700C23FA18FB1D1B7811001800044B6A
S2140083609847C046BD4604B080BDC046ED820000BA
S2140083700197000080B500AF084B1B7801225340E0
S214008380DBB2002B07D0064B9847064B1A78012124
S2140083900A431A70C046C046BD4680BDA4050020EC
S2140083A0B1B50000780D002080B500AF024B1B78F9
S2140083B0DBB21800BD4680BD2F06002080B500AF9A
S2140083C0024B1B78C046BD4680BDC0462E06002028
S2140083D080B500AF024B00221A70C046BD4680BD75
S2140083E02F06002080B500AFC046BD4680BD80B5D4
S2140083F000AFC046BD4680BD80B500AFC046BD4696
S21400840080BD80B500AFC046BD4680BD80B582B099
S21400841000AF0200FB1D1A70034B01221A700123E5
S2140084201800BD4602B080BD2E06002080B582B082
S21400843000AF0200FB1D1A70034B00221A70C046E4
S214008440BD4602B080BDC0462E06002080B582B074
S21400845000AF0200FB1D1A7006E0074B98470300AA
S214008460DBB21800054B9847054B9847031EF4D11E
S214008470C046BD4602B080BD91B00000FDA200001F
S2140084800DAF000080B582B000AF0200FB1D1A7071
S214008490C046BD4602B080BD80B582B000AF0200C7
S2140084A0FB1D1A70BB1D0A1C1A70044BBA1D1278ED
S2140084B01A70C046BD4602B080BDC0462F060020DA
S2140084C080B582B000AF0200FB1D1A70BB1D0A1CEF
S2140084D01A70C046BD4602B080BD80B582B000AFFF
S2140084E002003960FB1D1A70C046BD4602B080BD52
S2140084F080B582B000AF78607B68802200219954F6
S2140085007B68812200219954C046BD4602B080BDDA
S21400851080B584B000AF78600A00FB1C1A707B68D8
S21400852080229B5CDBB20133DAB20F23FB187F217B
S2140085300A401A707B680F22BA18802112785A54A3
S2140085407B6880229B5CDAB27B6881215B5CDBB255
S2140085509A4203D17B681800064B98470F23FB18F6
S2140085601B787A68F91C0978D154C046BD4604B019
S21400857080BDC046F184000080B584B000AF78604E
S2140085807B6881229B5CDBB20133DAB20F23FB18D7
S2140085907F210A401A707B680F22BA188121127850
S2140085A05A540F23FB181B787A68D35CDBB218008A
S2140085B0BD4604B080BD80B582B000AF78607B68F1
S2140085C080229B5CDAB27B6881215B5CDBB2D31ACB
S2140085D05A1E9341DBB21800BD4602B080BD0000B3
S2140085E080B584B000AF78607B681800084B984769
S2140085F002000F23FB181A700F23FB181A787B68EB
S21400860011001800034B9847C046BD4604B080BD15
S21400861099640100B58D000080B582B000AF786027
S2140086200A00FB1C1A70FB1C1A787B6811001800E5
S214008630024B9847C046BD4602B080BDB58D0000CF
S21400864080B586B000AFF8607A600B23FB180A1C72
S2140086501A70FB68002B0AD0FB681800154B984769
S2140086600300DAB2FB6811001800134B9847142376
S214008670FA180B23FB181B78110018000F4B9847AD
S2140086801423FB18032118000B4B98477B68002B1C
S2140086900BD07B681800074B98470300DAB27B685C
S2140086A011001800044B9847C046C046BD4606B0A9
S2140086B080BDC04699640100B58D0000698C00003D
S2140086C080B582B000AF0200BB1D1A80BB1D1B88A0
S2140086D01800034B9847C046BD4602B080BDC04652
S2140086E0ED8D000080B582B000AF0200BB1D1A8081
S2140086F0BB1D1B881800034B9847C046BD4602B0FA
S21400870080BDC046958E0000B0B582B000AF0200B6
S2140087103960FB1D1A70FB1D1B787F2B32D92F4C3E
S214008720FB1D1B781A000F231340083B99082B4AA1
S214008730FB1D1B7818000F230340083B9B080633DD
S2140087409B00D31804331B68FA1D1278100003220E
S2140087500240D200FF2090400200D2431A403B68FD
S2140087609B01FF201840FB1D1B781D0003232B4098
S214008770DB00984003001A438B1D9B00E31804336C
S2140087801A6027E0164CFB1D1B785BB29B08144949
S214008790FA1D127852B29208C03292005258F91D51
S2140087A00978080003210140C900FF208840010025
S2140087B0C94311403A689201FF201040FA1D127812
S2140087C0150003222A40D200904002000A43C0331C
S2140087D09B001A51C046BD4602B0B0BD00ED00E099
S2140087E000E100E080B500AF01235B4203211800E2
S2140087F0054B9847054B00229A60044B00221A60EE
S21400880000231800BD4680BD0987000010E000E088
S21400881080B582B000AF0C4B00221A60FB1D002210
S2140088201A7009E0FB1D1B781800084B9847FB1DC3
S2140088301A78FB1D01321A70FB1D1B780F2BF1D91D
S214008840C046BD4602B080BDDC0C0020AD890000ED
S21400885080B500AF044B1B685A1C034B1A60034BD1
S2140088609847C046BD4680BDDC0C0020498A000003
S21400887080B586B000AFF860B9603B60FB1D1A702B
S2140088801723FB1800221A7014E01723FB181A7817
S21400889044491300DB009B1A9B005B5C012253409B
S2140088A0DBB2002B0CD11723FB181A781723FB1802
S2140088B001321A701723FB181B780F2BE5D900E03E
S2140088C0C0461723FB181B780F2B01D9012365E040
S2140088D0354B9847FB68002B13D0FB6801221A70B3
S2140088E0FB681722BA1812785A701723FB181A78E2
S2140088F02C491300DB009B1A9B00CB181433FA6834
S2140089001A601723FB181A7826491300DB009B1AF7
S2140089109B0001225A541723FB181A78214913008A
S214008920DB009B1A9B00CB180433BA681A60172327
S214008930FB181A781B491300DB009B1A9B00CB1808
S2140089400833BA681A601723FB181A7815491300FB
S214008950DB009B1A9B00CB180C33FA1D12781A709A
S2140089601723FB181A780F491300DB009B1A9B008D
S214008970CB1810333A681A601723FB181A7809497F
S2140089801300DB009B1A9B00CB1818333A6A1A6058
S2140089901723FB181B785A1E9341DBB21800BD46FE
S2140089A006B080BD1C0B0020758B000080B582B021
S2140089B000AF0200FB1D1A70FB1D1B780F2B3BD867
S2140089C0FB1D1A781E491300DB009B1A9B00CB1870
S2140089D014331B68002B22D0FB1D1A78184913008D
S2140089E0DB009B1A9B00CB1814331B6800221A70FE
S2140089F0FB1D1A7812491300DB009B1A9B00CB184C
S214008A0014331B68FF225A70FB1D1A780C4913009A
S214008A10DB009B1A9B00CB18143300221A60FB1D48
S214008A201A7807491300DB009B1A9B0000225A5451
S214008A30044B9847C04600E0C046BD4602B080BD25
S214008A401C0B0020B18B000080B582B000AFFB1D70
S214008A5000221A7081E0FB1D1A7844491300DB00DF
S214008A609B1A9B005B5C002B72D0FB1D1A783F495B
S214008A701300DB009B1A9B00CB1804331B68002BEB
S214008A8012D0FB1D1A7839491300DB009B1A9B0095
S214008A90CB1804331B68591E34481300DB009B1A9E
S214008AA09B00C31804331960FB1D1A782F49130066
S214008AB0DB009B1A9B00CB1804331B68002B47D1A6
S214008AC0FB1D1A7829491300DB009B1A9B00CB1864
S214008AD00C331B78012B14D1FB1D1A78FB1D19785B
S214008AE022480B00DB005B1A9B00C318083319688A
S214008AF01E481300DB009B1A9B00C3180433196042
S214008B0004E0FB1D1B781800194B9847FB1D1A78CC
S214008B1016491300DB009B1A9B00CB1810331B680A
S214008B20002B15D0FB1D1A7810491300DB009B1A8A
S214008B309B00CB1810331968FB1D1A780B481300DE
S214008B40DB009B1A9B00C31818331B681800884765
S214008B50FB1D1A78FB1D01321A70FB1D1B780F2BAC
S214008B6000D878E7C046BD4602B080BD1C0B00208A
S214008B70AD89000080B500AF0A4B1B78DBB2002B36
S214008B8006D1094B9847094B1A7802210A431A70F6
S214008B90044B1B78DBB20133DAB2024B1A70C046C4
S214008BA0BD4680BD3006002031D00000780D002084
S214008BB080B500AF0D4B1B78DBB2002B06D00B4BFD
S214008BC01B78DBB2013BDAB2084B1A70074B1B78F6
S214008BD0DBB2002B06D1064B9847064B1A780221CB
S214008BE08A431A70C046BD4680BDC0463006002087
S214008BF0E5870000780D002080B582B000AF020047
S214008C00FB1D1A70FB1DFA1D12780F210A401A7000
S214008C10FB1D1B78092B04D8FB1D1B783033DBB2F9
S214008C2003E0FB1D1B783733DBB21800BD4602B0ED
S214008C3080BD80B582B000AF0200FB1D1A70FB1D20
S214008C40FA1D1278303A1A70FB1D1B78092B04D9CE
S214008C50FB1DFA1D1278073A1A70FB1D1B781800C8
S214008C60BD4602B080BD000090B583B000AF0200E4
S214008C703960FB1D1A70FB1D1A781C4B642110000E
S214008C8098470300DBB23033DAB23B681A70FC1D3B
S214008C90FB1D1A78164B6421100098470B002370B2
S214008CA03B685C1CFB1D1A78104B0A211000984785
S214008CB00300DBB23033DBB22370FC1DFB1D1A78D9
S214008CC00B4B0A21100098470B0023703B680233B9
S214008CD0FA1D12783032D2B21A703B680333002283
S214008CE01A70C046BD4603B090BDC0463944010068
S214008CF04545010090B585B000AFF860B960FB1D32
S214008D001A7017E0BC68631CBB60FB681B781B0905
S214008D10DBB218000D4B984703002370BC68631C39
S214008D20BB60FB685A1CFA601B781800074B984714
S214008D3003002370FB1D1B78FA1D591E1170002BB3
S214008D40E0D1C046BD4605B090BDC046F98B0000D8
S214008D5080B584B000AFF860B960FB1D1A701BE0E8
S214008D60FB685A1CFA601B781800114B98470300E2
S214008D701B01DAB2BB681A70FB685A1CFA601B78D3
S214008D8018000B4B984703001900BB685A1CBA60C2
S214008D901A780A43D2B21A70FB1D1B78FA1D591EA8
S214008DA01170002BDCD1C046BD4604B080BDC04665
S214008DB0338C000080B582B000AF78600A00FB1CE0
S214008DC01A70084B9847031E07D0FB1C1A787B685E
S214008DD011001800044B9847C046C046BD4602B076
S214008DE080BDC046A9830000EDB20000F0B583B098
S214008DF000AFBB1D18801F4B1B78002B16D0BB1D69
S214008E001B881D484343190000231A001B4B0024EF
S214008E10C918624108001100194C1A4A0023A047DD
S214008E2003000C001800184B98471FE0BB1D1B885A
S214008E309BB21D0000231E00144C154A0023280078
S214008E403100A04703000C00190022000B4B002441
S214008E50C918624108001100094C0A4A0023A047BD
S214008E6003000C001800084B9847C046BD4603B0E8
S214008E70F0BDC046A405002000093D00BFCF6A0033
S214008E80A1470100C0CF6A0001000020E1470100B1
S214008E90006CDC02F0B583B000AFBB1D18801F4B22
S214008EA01B78002B16D0BB1D1B881D48434319009A
S214008EB000231A001B4B0024C91862410800110049
S214008EC0194C1A4A0023A04703000C001800184B40
S214008ED098471FE0BB1D1B889BB21D0000231E0089
S214008EE0144C154A002328003100A04703000C004C
S214008EF0190022000B4B0024C9186241080011001B
S214008F00094C0A4A0023A04703000C001800084B2F
S214008F109847C046BD4603B0F0BDC046A405002035
S214008F2000093D00571B0000A1470100581B000028
S214008F3001000020E1470100006CDC0280B500AFB4
S214008F40044B1B6A202213405A1E9341DBB21800C2
S214008F50BD4680BD0044004180B500AF044B1B6A8F
S214008F60402213405A1E9341DBB21800BD4680BD16
S214008F700044004180B500AF054AA023D2588023A4
S214008F80DB0313405A1E9341DBB21800BD4680BD7A
S214008F900044004180B582B000AF0200FB1D1A708D
S214008FA0064BFA1D127811001F220A40012191403B
S214008FB00A001A60C046BD4602B080BD00E100E06F
S214008FC080B584B000AF3B0000221A803B00002230
S214008FD09A703B000022DA703B0001221A713A00B8
S214008FE00C490D4B18000D4B98470B4B18000C4BBB
S214008FF09847FA239A00084B11001800094B984727
S214009000044B8022DA710320074B9847C046BD46C2
S21400901004B080BD00140040080D002001A100002F
S214009020119F0000B9A20000958F000080B500AF28
S214009030024B1B681800BD4680BDC04634060020A3
S21400904080B582B000AF084B1800084B9847030065
S2140090507B607B68064A934201D9012300E0002327
S2140090601800BD4602B080BD080D002091A100008A
S214009070DE03000080B500AF064B80221A72064B56
S2140090801B685A1C044B1A60044B9847C046BD46E2
S21400909080BDC0460014004034060020559A0000EB
S2140090A080B582B000AF02003960FB1D1A70FB1D50
S2140090B01B78012B0AD0022B0FD0002B14D10E4B9D
S2140090C00D4A91693A680A439A610FE00A4B0A4AC8
S2140090D0D1693A680A43DA6108E0074B064A116A22
S2140090E03A680A431A6201E0172300E000231800DA
S2140090F0BD4602B080BDC0460004004080B500AF4B
S214009100024B9847C046BD4680BDC046F59B000052
S21400911080B500AF024B9847C046BD4680BDC046EE
S214009120499C000080B500AF054B5B78DBB25BB2B4
S214009130002B01DA012300E000231800BD4680BDA5
S214009140000C004080B500AF08210020074B984770
S214009150074B01221A70C046054B1B78DBB21A007B
S21400916001231340F8D1C046BD4680BDA190000043
S214009170000C004080B586B000AF02003960FB1DD1
S2140091801A70FB1D1B787B61FB1D1B783B613B68DF
S2140091901B781B021A007B6913437B613B685B7874
S2140091A0002B04D07B698022D20213437B613B688C
S2140091B05B7A002B04D07B698022120313437B6109
S2140091C03B685B68012B2CD93B685A683B685B6838
S2140091D0013B13401AD10023FB600223BB6005E06D
S2140091E0FB680133FB60BB685B00BB603B685A688A
S2140091F0BB689A42F4D8FB681B023A6913433B618A
S2140092007B698022520313437B610AE03B685B68FC
S2140092101B023A6913433B617B6980229202134327
S2140092207B613B681B7A002B04D07B69802292030B
S21400923013437B61C046134B9847031EFBD1124B6A
S2140092409847124AFB1D1B781370C0460D4B984773
S214009250031EFBD10E4B3A699A60C046094B9847ED
S214009260031EFBD10A4B0A4A516880225202114063
S2140092707A690A435A60074B9847C046BD4606B00F
S21400928080BDC04625910000FD900000080C0040FF
S214009290000C00401191000080B582B000AF0200C3
S2140092A0FB1D1A70C0460E4B9847031EFBD10D4B94
S2140092B098470D4AFB1D1B781370C046084B98470D
S2140092C0031EFBD1094B094A5268802149020A4312
S2140092D05A60074B9847C046BD4602B080BDC046A0
S2140092E025910000FD900000040C0040000C00409A
S2140092F01191000080B586B000AF0200FB1D1A7009
S214009300C0462A4B9847031EFBD1294B9847294A4B
S214009310FB1D1B781370C046244B9847031EFBD1D9
S214009320254B5B68DB04DB0EDBB21800234B98474B
S21400933003007B611F4AFB1D1B7813701E4B5B6886
S214009340DB02DB0FDAB21323FB181A701C4AFB1D74
S2140093501B781370C046154B9847031EFBD1164B5F
S2140093609B681B021B0C9BB2FB60164B9847132393
S214009370FB181B78002B09D1FB68012B06D9124B72
S214009380F9687869984703007B610AE01323FB18A5
S2140093901B78002B05D0FB6801337A69DA4013008E
S2140093A07B617B691800BD4606B080BD2591000034
S2140093B0FD900000040C0040000C0040B9D90000ED
S2140093C0080C0040119100003944010080B584B0BB
S2140093D000AF02003960FB1D1A70FB1D1B78FB6096
S2140093E03B681B781B021A00FB681343FB60FB1DDF
S2140093F01B781800044B9847044BFA6892B25A80C0
S214009400C046BD4604B080BD59940000000C004024
S21400941080B582B000AF0200FB1D1A700A4B984759
S2140094200A4AFB1D1B7813700949094B5B889BB2DF
S2140094308022D20113439BB24B80064B9847C0460E
S214009440BD4602B080BDC046FD900000020C004044
S214009450000C00401191000080B584B000AF0200FF
S214009460FB1D1A701C4B98471C4AFB1D1B7813707B
S2140094701B4B5B881B051B0FDBB2FB60184A53882F
S21400948018490B405380164A154B5B889BB2164909
S2140094900B409BB25380C046114B5B889BB21A00B0
S2140094A08023DB011340F7D10D4AFB68DBB2191CA1
S2140094B00F230B40D9B25388081C0F210140080225
S2140094C008490B40191C031C0B435380074B984755
S2140094D0C046BD4604B080BDFD900000020C0040B2
S2140094E0000C0040FFF0FFFFFFBFFFFF11910000E0
S2140094F080B582B000AF0200FB1D1A70094B98477A
S214009500094AFB1D1B781370084A084B5B889BB200
S21400951007490B439BB25380064B9847C046BD464F
S21400952002B080BDFD900000020C0040000C004020
S21400953000C0FFFF1191000080B584B000AF0200AC
S214009540FB1D1A700D4B98470D4AFB1D1B781370B8
S2140095500C4B5B881B051B0FDAB20F23FB181A7027
S214009560094B98470F23FB181B781800074B9847A2
S21400957003001800BD4604B080BDC046FD90000044
S214009580020C0040000C004011910000F592000013
S21400959080B584B000AF0200FB1D1A700F23FB18C5
S2140095A0FA1D1278D2091A700E23FB18FA1D1278CB
S2140095B052091A700D4BBB600F23FB181B78002B4B
S2140095C00FD10F23FB181B789B0010229446BC4437
S2140095D06344083B1A680E23FB181B78DB01D3187C
S2140095E000E000231800BD4604B080BD00440041E2
S2140095F080B588B000AFF860B9607A600023FB6180
S2140096007B68DB7801225340DBB2002B35D07B68C9
S2140096101B78802B0BD0FB69802252021343FB6120
S2140096207B681B781B061A00FB691343FB617B688B
S2140096305B78002B03D07B685B78022B10D1FB692C
S214009640802292021343FB617B689B78002B04D038
S214009650FB698022D2021343FB61FB68BA685A603A
S2140096607B685B78012B03D07B685B78022B07D185
S214009670FB69224A1340FB6102E0FB68BA685A6045
S214009680BB681B041B0CBB61BB681B0C7B61BA6907
S214009690FB691343A022D2051A43FB689A627A69D3
S2140096A0FB691343D02212061A43FB689A627B6852
S2140096B0DB7801225340DBB2002B1AD0FA698023F4
S2140096C0DB0213400AD07B689B78012B03D1FB6832
S2140096D0BA689A6102E0FB68BA685A617B685B7890
S2140096E0012B03D07B685B78022B02D1FB68BA683B
S2140096F09A60C046BD4608B080BDC046FFFFFBFF6F
S21400970080B584B000AF02003960FB1D1A70FB1DE7
S2140097101B7818000A4B98470300FB60FB1D1B785C
S2140097201F22134001229A401300BB603A68B968B2
S214009730FB681800034B9847C046BD4604B080BD82
S21400974091950000F195000080B500AF0B4B98474F
S2140097500B4B98470B4B98470B4B984703E00B4B2C
S2140097609847094B98470A4B1B889BB2002BF6D1AB
S214009770084B9847084B9847EEE7C046ADC6000032
S21400978099C6000095620000C599000099980000EF
S214009790740D0020C5620000D999000080B584B021
S2140097A000AF0200FB1D1A701A4B9B69FB60FA683B
S2140097B0F0231B011340FB60FB681B0AFB60FB6881
S2140097C0022B05D8144A5368C02189000B43536006
S2140097D0FB1D1B78002B16DB022B02DD032B0BD0A8
S2140097E011E00E4B0D4A126904218A431A610C4A95
S2140097F0FB1D1B78537008E0084B084A12690421C9
S2140098000A431A6101E0172300E000231800BD4652
S21400981004B080BD002000410040004100ED00E0A3
S2140098200004004080B500AFBFF34F8F30BFC04686
S214009830BD4680BD80B500AF0D4B98470D4B984791
S2140098400D4B984701200D4B98470D4B98470D4BF5
S21400985098470D4B98470D4B9847C8235B0000214F
S21400986018000B4B98470B4B9847C046BD4680BD2B
S214009870ADD60000BD9A00009D9C0000B99C00007B
S214009880C18F000011880000F5D00000F9D4000058
S21400989039CC0000D99D000080B500AF3F4A138840
S2140098A0DB05DB0D13803D4B1B88DB07DB0FDBB2D4
S2140098B0012B04D1394A138801218B431380374B7F
S2140098C01B889B07DB0FDBB2012B04D1334A1388BE
S2140098D002218B431380314B1B885B07DB0FDBB207
S2140098E0012B04D12D4A138804218B4313802B4B64
S2140098F01B88DB06DB0FDBB2012B06D1274A138859
S21400990010218B431380264B9847244B1B889B06BD
S214009910DB0FDBB2012B06D1204A138820218B43B4
S2140099201380204B98471D4B1B881B07DB0FDBB2B1
S214009930012B06D1194A138808218B4313801A4B32
S2140099409847164B1B885B06DB0FDBB2012B06D154
S214009950124A138840218B431380144B98470F4BB1
S2140099601B881B06DB0FDBB2012B04D10B4A1388C6
S21400997080218B431380094B1B88DB05DB0FDBB292
S214009980012B07D1054A138809490B401380094B60
S2140099909847C046C046BD4680BDC046740D0020F0
S2140099A09D6A0000916B0000A9A30000C5C80000D6
S2140099B0FFFEFFFFB999000080B500AFC046BD4668
S2140099C080BD000080B500AF024B9847C046BD463C
S2140099D080BDC046E59C000080B500AF72B6BFF300
S2140099E05F8F174B00221A70164B1B889BB2002BFA
S2140099F00CD1154B984703001A0001235340DBB2E5
S214009A00002B03D00320114B98470DE00D4B1B880D
S214009A10DB07DB0FDBB2002B03D000200B4B984795
S214009A2002E00220094B9847054B01221A70BFF34B
S214009A305F8F62B6064B9847C046BD4680BDC0469F
S214009A4030000020780D0020419000009D97000017
S214009A502598000080B500AF034B98470220034BC3
S214009A609847C046BD4680BDE1D00000B99C0000C6
S214009A7080B500AF024B9847C046BD4680BDC04685
S214009A805188000080B582B000AF0200FB1D1A703E
S214009A90BB1D0A1C1A70FB1D1B789B00DAB2BB1D8F
S214009AA01B78D318DBB20333DBB21800024B98479F
S214009AB0C046BD4602B080BDB99C000080B500AF70
S214009AC00D4B00221A700D4B98470D4B98470D4AC8
S214009AD00D4B110018000D4B98470D490A4B1022EC
S214009AE018000C4B9847031E03D1034B01221A7033
S214009AF0C046C046BD4680BD58060020459B0000B7
S214009B00A19B0000C46801004806002001F6000082
S214009B1038060020D962010080B500AF0649074B21
S214009B2010221800064B984703005A425341DBB2F6
S214009B301800BD4680BDC0463806002048060020F6
S214009B40D962010080B582B000AF0F4B7B600F4B2F
S214009B503B600F4B7A6812681A600E4A3B68191D04
S214009B6039601B6813600C4A3B68191D39601B6816
S214009B7013600A4A3B68191D39601B681360C046AB
S214009B80BD4602B080BDC0460CA0800040A080004C
S214009B90380600203C060020400600204406002030
S214009BA080B582B000AF8023DB017B600D4A7B6806
S214009BB0191D79601B6813600B4A7B68191D796054
S214009BC01B681360094A7B68191D79601B6813605F
S214009BD0074A7B68191D79601B681360C046BD463E
S214009BE002B080BD480600204C060020500600202B
S214009BF05406002080B582B000AF104B1B68002BC7
S214009C0012D1EFF310837B607B68002B09D172B60C
S214009C10BFF35F8F0A4B00221A700A4B01221A709C
S214009C2002E0084B00221A70044B1B685A1C034BB8
S214009C301A60C046BD4602B080BDC0465C06002025
S214009C40300000206006002080B500AF0B4B1B687C
S214009C505A1E0A4B1A60094B1B68002B0AD1084B88
S214009C601B78DBB2002B05D0064B01221A70BFF31F
S214009C705F8F62B6C046BD4680BDC0465C0600200B
S214009C80600600203000002080B582B000AF0200E1
S214009C90FB1D1A70C046BD4602B080BD80B500AF41
S214009CA0034B1800034B9847C046BD4680BDC046D0
S214009CB064060020F184000080B582B000AF020088
S214009CC0FB1D1A70FB1D1A78044B11001800044B7C
S214009CD09847C046BD4602B080BDC0466406002018
S214009CE01185000080B500AF07E0084B1800084B50
S214009CF0984703001800074B9847044B1800064B7C
S214009D009847031EF1D1C046BD4680BD64060020BC
S214009D10798500001D9D0000B785000090B585B0D0
S214009D2000AF0200FB1D1A700F23FC18FB1D1B78EA
S214009D301800104B9847030023700F23FB181B785E
S214009D400D4ADB00D31804331B68002B09D00F2301
S214009D50FB181B78084ADB00D31804331B689847A7
S214009D6005E0FB1D1B781800044B9847C046BD460F
S214009D7005B090BD819D000034000020899C000045
S214009D8080B584B000AF0200FB1D1A700F23FB18CD
S214009D9000221A7014E00F23FB181A780D4BD2001D
S214009DA0D35CFA1D12789A4203D10F23FB181B7856
S214009DB00CE00F23FB181A780F23FB1801321A70D9
S214009DC00F23FB181B78092BE5D9FF231800BD4687
S214009DD004B080BD3400002080B500AF034B984728
S214009DE0034B9847C046BD4680BDC046459E000012
S214009DF0F59D000080B582B000AF0E4B00221A70B1
S214009E000D4B00221A700D4B00221A7007237B6040
S214009E100B4A7B68D31800221A707B68002B03D08D
S214009E207B68013B7B60F3E7C046C046BD4602B098
S214009E3080BDC046860D0020850D0020840D0020C4
S214009E407C0D002080B500AF024B9847C046BD464B
S214009E5080BDC046599E000080B500AF044B40222E
S214009E609A61034B40225A60C046BD4680BDC0463C
S214009E700044004180B582B000AF78607B68002265
S214009E801A70C046BD4602B080BD000080B582B0E4
S214009E9000AF02003960FB1D1A70FB1D1B78012BFA
S214009EA00AD0022B0FD0002B14D10E4B0D4A91690D
S214009EB03A680A439A610FE00A4B0A4AD1693A683F
S214009EC00A43DA6108E0074B064A116A3A680A4311
S214009ED01A6201E0172300E000231800BD4602B016
S214009EE080BDC0460004004080B584B000AF7860F6
S214009EF07B681B68FB60FB689B7ADBB25BB2002B5F
S214009F0001DA012300E000231800BD4604B080BD3E
S214009F1080B584B000AF78607B681B68FB60C04685
S214009F207B681800074B9847031EF9D1FB681B880F
S214009F309BB2022213439AB2FB681A80C046BD4603
S214009F4004B080BDE99E000080B584B000AF7860A4
S214009F507B681B68FB60C0467B6818000A4B984706
S214009F60031EF9D1FB68C1229A71FB68C1221A72DE
S214009F70FB681B889BB2022293439AB2FB681A8046
S214009F80C046BD4604B080BDE99E000080B584B0E2
S214009F9000AF78607B681B68FB607B6818000A4B24
S214009FA09847C0467B681800084B9847031EF9D1AF
S214009FB0FB681B889BB2012213439AB2FB681A8087
S214009FC0C046BD4604B080BD499F0000E99E000023
S214009FD080B584B000AF786039607B681B68BB6072
S214009FE03B681A88BB681A803B689B78002B3AD07F
S214009FF0012B00D06CE0BB681B889AB2BB681A8045
S21400A0003B68DB78002B07D0BB681B889BB280229E
S21400A01013439AB2BB681A800F23FB1800221A70EB
S21400A0201BE0C0467B681800334B9847031EF9D1E7
S21400A0300F23FB181A783B6802329200D1580F2380
S21400A040FB181A787B6818002C4B98470F23FB18D0
S21400A0501A780F23FB1801321A700F23FB181B788F
S21400A060002BDED036E0BB681B889BB2042213436D
S21400A0709AB2BB681A803B68DB78002B01D01723A6
S21400A08036E00E23FB1800221A701BE0C0467B68E1
S21400A0901800194B9847031EF9D10E23FB181A789F
S21400A0A03B6802329200D1580E23FB181A787B6860
S21400A0B01800124B98470E23FB181A780E23FB182D
S21400A0C001321A700E23FB181B78012BDED901E033
S21400A0D017230DE03B681B79002B08D0BB685B8814
S21400A0E09BB28022D20113439AB2BB685A800023E7
S21400A0F01800BD4604B080BDE99E00002DA20000F9
S21400A10080B586B000AFF860B9607A60FB68BA6860
S21400A1101A6020210020174B98471423FB181800BC
S21400A120154B98471423FB1802221A701423FB18A9
S21400A13019000420114B98470420114B9847FB68E0
S21400A1401800104B98477B689A78FB681A717B68F2
S21400A1501A79FB685A710C4BFA681A607A68FB68C1
S21400A16011001800094B984703001800BD4606B0BA
S21400A17080BDC0468D9E0000759E0000CD930000F9
S21400A180119400008D9F0000880D0020D19F0000D4
S21400A19080B584B000AF78607B681B68BB607B6866
S21400A1A05B7901225340DBB2002B0AD0BB681C4A05
S21400A1B05A80C0467B6818001A4B9847031EF9D190
S21400A1C016E0BB685B889BB21A008023DB01134055
S21400A1D00ED1BB685B889BB2134A13439AB2BB6826
S21400A1E05A80C0467B6818000E4B9847031EF9D16C
S21400A1F07B681B79002B05D0012B08D1BB681B6937
S21400A200FB6007E0BB681B8A9BB2FB6002E0002392
S21400A210FB60C046FB681800BD4604B080BDC04663
S21400A2200080FFFFE99E000000C0FFFF80B586B0FB
S21400A23000AFF860B960FB1D1A70FB681B687B6195
S21400A240C046FB6818001A4B9847031EF9D1FB68F6
S21400A2501B79002B0FD0012B22D1FB1D1B78012B65
S21400A26001D917231FE0FB1D1A787B69063292007E
S21400A270B968D15016E0FB1D1B78022B01D91723B5
S21400A28011E0BB680B4A934201D917230BE0FB1D74
S21400A2901A78BB6899B27B690C325200D15201E041
S21400A2A01A2300E000231800BD4606B080BDC04655
S21400A2B0E99E0000FFFF000080B584B000AF786024
S21400A2C00A00BB1C1A807B681B68FB607B681B79D6
S21400A2D0002B01D015230BE0C0467B681800064B08
S21400A2E09847031EF9D1FB68BA1C12889A8200238D
S21400A2F01800BD4604B080BDE99E000080B582B05F
S21400A30000AF0200FB1D1A70214B1B881B07DB0FDA
S21400A310DBB2012B36D01F4B1B78DBB25A1CD1B2F6
S21400A3201C4A117019001C4BFA1D12785A54194B0E
S21400A3301B78DBB23F2B02D9164B00221A70FB1D8E
S21400A3401B780D2B20D1134B1B78DBB2002B1BD0B8
S21400A350104B1B78DBB21A000F49104B1800104B3D
S21400A36098470C4B1B78DBB2013BDAB20D4B1A70E8
S21400A370084B00221A70064A138808210B431380E4
S21400A380C04601E0C04600E0C046BD4602B080BD03
S21400A390740D00208C0D0020D00D0020900D0020A4
S21400A3A025630100100E002080B500AF1F4B1B7800
S21400A3B0DBB2022B0CD11E491E4B022218001E4B8C
S21400A3C09847031E2ED11D4B18001D4B984729E0B9
S21400A3D0164B1B78DBB2072B21D11549194B0722E8
S21400A3E01800154B9847031E03D1174B1800144B43
S21400A3F098470F49154B072218000F4B9847031E26
S21400A40010D1134B9847031E04D0124B18000C4B68
S21400A410984707E0104B1800094B984702E0034B9B
S21400A4201B78C046C046BD4680BDC046100E002004
S21400A430900D0020D4680100D9620100D8680100A0
S21400A440E1850000E0680100E8680100F8680100A6
S21400A450199B0000006901001069010080B500AF7B
S21400A460C046BD4680BD000080B582B000AFEFF3A9
S21400A47010837B607B685A425341DBB23B6072B606
S21400A480BFF35F8F034B00221A703B681800BD466F
S21400A49002B080BD3000002080B582B000AF78608A
S21400A4A07B685A1E9341DBB21800BD4602B080BDE1
S21400A4B080B582B000AF78607B681800064B98477E
S21400A4C0031E05D0054B01221A70BFF35F8F62B6DC
S21400A4D0C046BD4602B080BD99A4000030000020F2
S21400A4E090B583B000AFBB1D00221A705E4B0022F1
S21400A4F01A70BB1D1A785D4B52000021D152BB1D4D
S21400A5001A785B4913009B009B185B00A1225A54E3
S21400A510BB1D1A78564913009B009B185B00CB188E
S21400A520013320221A70BB1D1A78514913009B0074
S21400A5309B185B00CB18023300221A80BB1D1B78C9
S21400A540002B03D1FB1D00221A7003E0FB1D002226
S21400A5501A70C046BB1D1A78FB1D1B7898B244497A
S21400A56013009B009B185B00CB180433021C1A8058
S21400A570BB1D1A783E4913009B009B185B00CB1846
S21400A580063302221A80BB1D1A78394913009B0035
S21400A5909B185B00CB18083300221A80BB1D197865
S21400A5A0344A0B00DB005B1A995C0020014099548A
S21400A5B0D118487800242040041C3E204042204306
S21400A5C04870D118887800242040041C01202043BD
S21400A5D08870D318DA7800210A40DA70BB1D1A7822
S21400A5E024491300DB009B1ACB18043300221A7090
S21400A5F0BB1D1A781F491300DB009B1ACB180533C6
S21400A60000221A70BB1D1A781A491300DB009B1A29
S21400A610CB18063308221A70BB1D1A781300DB000D
S21400A6209B1A144A9A18BB1D1B7811001800124B6F
S21400A6309847BB1D1B781800104B984703001A005C
S21400A64001235340DBB2002B01D0002307E0064B6A
S21400A6501B78DBB20133DAB2034B1A700123180001
S21400A660BD4603B090BDC046FE060020F0060020A2
S21400A670F4060020E8060020DB8400000D840000BD
S21400A68080B582B000AFFB1D00221A70354B002249
S21400A6901A70FB1D1B78344A0021D154FB1D1B7811
S21400A6A0324A0021D154FB1D1B78314A0021D15477
S21400A6B0FB1D1A782F4B92000021D152FB1D1B78F0
S21400A6C02C4A9B00D318023300221A80FB1D1A78EE
S21400A6D0294B52000021D152FB1D1B781800274B36
S21400A6E09847FB1D1B78264A0021D154FB1D1B787A
S21400A6F0244A0021D154FB1D1A78234B92000021D6
S21400A700D152FB1D1B78204A9B00D318023300222F
S21400A7101A80FB1D1A781D4B52000021D152FB1DDA
S21400A7201B7818001A4B984703001A000123534061
S21400A730DBB2002B01D000230FE00A4B1B78DBB204
S21400A7400133DAB2074B1A70064B1B78DBB2012BCB
S21400A75002D1104B01221A7001231800BD4602B028
S21400A76080BDC046FF0600202008002024080020E8
S21400A77018080020140800201C08002069AC0000FF
S21400A7809007002088070020840700208C07002000
S21400A790A9A900000007002080B500AF044B1B7875
S21400A7A0DBB2013BDAB2024B1A70C046BD4680BD32
S21400A7B0FE06002080B582B000AF0B4B1B78DBB2E4
S21400A7C0013BDAB2084B1A70FB1D074A12781A7062
S21400A7D0FB1D1B781800054B9847054B00221A7086
S21400A7E0C046BD4602B080BDFF0600202D84000096
S21400A7F00007002090B583B000AFFC1D3A4B984789
S21400A80003002370394B1B785BB2002B1EDA374BE4
S21400A8101B781A0060231340202B17D1334B5B782C
S21400A820212B13D1314BDB88072B01D0002356E0B8
S21400A830FB1D1A781300DB009B1A2D4A9A182B4B27
S21400A8409A602A4B07229A81012348E0274B1B78FF
S21400A8505BB2002B42DB254B1B781A0060231340AB
S21400A860202B3BD1214B5B78202B02D0222B17D0FC
S21400A87034E01E4BDB88072B01D000232FE01B4B58
S21400A8801C4A1A61FB1D1A781300DB009B1A184A33
S21400A8909A18164B9A60154B07229A8101231EE0E0
S21400A8A0124B5B881A00012313405A1E9341DAB2FA
S21400A8B0FB1D1B78110018000F4B98470B4B5B884D
S21400A8C01A00022313405A1E9341DAB2FB1D1B786E
S21400A8D011001800094B9847012300E000231800D8
S21400A8E0BD4603B090BDC04635A9000078110020D3
S21400A8F0E806002069A9000099840000C1840000D1
S21400A90080B500AF00231800BD4680BD80B500AFFF
S21400A91000231800BD4680BD80B500AF034B1B78F2
S21400A9201800034B9847C046BD4680BD250800204A
S21400A93069AC000080B582B000AF0A4B9B881A0055
S21400A940FF23134003D1FB1D00221A7003E0FB1DFA
S21400A95000221A70C046FB1D1B781800BD4602B0C8
S21400A96080BDC0467811002090B583B000AFFC1DB6
S21400A9700A4B984703002370FB1D1A781300DB0070
S21400A9809B1A074A9A18FB1D1B7811001800054BE6
S21400A9909847C046BD4603B090BDC04635A90000E6
S21400A9A0E8060020DB84000090B589B002AF020004
S21400A9B0FB1D1A70FB1D00221A703B4B98470300C4
S21400A9C03B61FB1D1A780F23FB1838498A5C1A7006
S21400A9D0FB1D1B78364AD35CDBB2002B12D1FB1D65
S21400A9E01A78344B5200D35A9AB2FB1D18780F23AC
S21400A9F0FB181978304B400041184900CB5A9BB2DF
S21400AA009A4205D23B6918002C4B9847002347E032
S21400AA10FB1D1A78274B52000021D152FB1D1B78D4
S21400AA200F22BA18127851424A41D2B211001F4A78
S21400AA30D154FB1D1B781E4A0121D1543B691800D6
S21400AA401E4B9847FB1D1B7818001D4B9847031E8E
S21400AA5004D0FB1D1B7818001A4B9847FB1D1B786B
S21400AA60002B04D11723FB1802221A7004E01723C8
S21400AA70FB1802221A70C046FB1D1A780F23FB181B
S21400AA801B785200D3189A010F4BD2181723FB18C5
S21400AA9018780E4B0093402301210D4CA04703006D
S21400AAA01800BD4607B090BD69A4000088070020C6
S21400AAB0900700208C07002084070020B1A4000027
S21400AAC025AF00004D84000004070020D5AA000032
S21400AAD0A912010090B587B002AF39601100FB1DC6
S21400AAE0021C1A70BB1D0A1C1A70BB1D1B78022B99
S21400AAF004D10F23FB1800221A7004E00F23FB1862
S21400AB0000221A70C046FB1D1B78002B3DD10F2378
S21400AB10FB181B781F4AD35CDBB25A425341DAB2A9
S21400AB200E23FB181A703B68002B13D10F23FB185B
S21400AB301A780E23FB181B785200D3189A01164B6E
S21400AB40D218BB1D1878154B009340230121144CD6
S21400AB50A0471BE00F23FB1819780E23FB181A7862
S21400AB603B6898B20F4B49008A185200011CD1521C
S21400AB700F23FB181B780C4A0021D1540F23FB1817
S21400AB801B781800094B984700E0C046BD4605B044
S21400AB9090BDC0468807002004070020D5AA000004
S21400ABA0A91201008407002090070020A9A9000030
S21400ABB080B584B000AF39601100FB1D021C1A700E
S21400ABC0BB1D0A1C1A70BB1D1B78812B04D10F23DA
S21400ABD0FB1800221A7004E00F23FB1800221A70DC
S21400ABE0C046FB1D1B78002B2ED10F23FB181A78AE
S21400ABF00F23FB181B781649CB5CDBB259424B413E
S21400AC00DBB21900134B5200521852000021D152E9
S21400AC100F23FB181B78104A0021D1540F23FB1872
S21400AC201B780E4A0021D1543B68002B05D00F2319
S21400AC30FB181B7818000A4B98470F23FB181B7845
S21400AC401800084B984700E0C046BD4604B080BDDB
S21400AC5018080020140800202408002020080020DF
S21400AC608584000069AC000090B589B002AF020090
S21400AC70FB1D1A70FB1D00221A70FB1D1B78764AFE
S21400AC80D35CDBB2002B00D0DFE0744B9847031E8A
S21400AC900AD0FB1D1A78724B5200D45A714B984753
S21400ACA003009C420BD1D3E0FB1D1A786C4B52007C
S21400ACB0D45A6D4B984703009C4200D1C7E06B4BBB
S21400ACC0984703003B61FB1D1A781723FB18684959
S21400ACD08A5C1A70FB1D19781723FB181A78654BC7
S21400ACE049008A185200D35A002B20D1624B1B8889
S21400ACF001339AB2604B1A80584B984703001A00EB
S21400AD0001235340DBB2002B03D05B4B1B88632B25
S21400AD1008D9524B9847031E09D0574B1B88574AF1
S21400AD20934204D83B691800554B984790E0524B25
S21400AD3000221A80FB1D1B78524AD35CDBB201222C
S21400AD405340DBB2002B0BD0FB1D1B781722BA1822
S21400AD50127851424A41D2B21100454AD15408E015
S21400AD601723FB181B785A425341DAB21723FB18F5
S21400AD701A70FB1D1B78384A0121D1543B69180014
S21400AD803F4B9847FB1D19781723FB181A78394B49
S21400AD9049008A185200D25A0F23FB18403A511E17
S21400ADA08A411A700F23FB181B78002B17D02B4BE9
S21400ADB09847031E09D0FB1D1C782A4B98470300B2
S21400ADC01900274B6200D1520FE0FB1D1C78264B62
S21400ADD0984703001900224B6200D15205E0FB1D84
S21400ADE01A781F4B52000021D152FB1D1B78002BF6
S21400ADF004D11623FB1881221A7004E01623FB18D0
S21400AE0081221A70C046FB1D1A781723FB181B7880
S21400AE105200D3189A011C4BD418FB1D197817231F
S21400AE20FB181A78134B49008A185200D35A1A0096
S21400AE300F23FB1819781623FB181878134B00936A
S21400AE4013002200124CA04702E0C04600E0C046B5
S21400AE50BD4607B090BDC04620080020010F010087
S21400AE601C080020290F01000D0F010069A4000036
S21400AE701808002014080020260800201F030000E1
S21400AE80B1A400002408002094070020B1AB000005
S21400AE90A912010080B586B000AF0200FB1D1A7033
S21400AEA0FB1D00221A70144B984703007B61FB1DA4
S21400AEB019781223FB18114A49008A5A1A80FB1D7A
S21400AEC01A78FB1D1B780E49CB5CDBB219000D4BC4
S21400AED0520052185200D35A9BB21A001223FB1883
S21400AEE01B88D31AFB607B691800074B9847FB68E2
S21400AEF01800BD4606B080BD69A400008C0700207F
S21400AF008807002084070020B1A4000080B500AFA9
S21400AF100020034B984703001800BD4680BDC0467E
S21400AF2095AE000080B582B000AF0200FB1D1A701F
S21400AF30FB1D1B781800054B984703005A1E9341CB
S21400AF40DBB21800BD4602B080BDC04695AE00001C
S21400AF5080B586B000AF0200FB1D1A7000237B612F
S21400AF60FB1D00221A70FB1D1A7840491300DB00F7
S21400AF709B1ACB1806331A781323FB18093A51424A
S21400AF804A411A703A4B98470300FB60FB1D19783C
S21400AF900A23FB18374A49008A5A1A80FB1D1A787A
S21400AFA00923FB1834498A5C1A70FB1D197809239B
S21400AFB0FB181A78314B49008A185200D35A99B2B6
S21400AFC00823FA180A23FB181888002388425B41D6
S21400AFD01370FB6818002A4B98470823FB181B7849
S21400AFE0002B10D0274B1B78DBB201225340DBB27C
S21400AFF0002B01D0002335E01323FB181322BA18C8
S21400B00012781A70BEE7FB1D18780923FB181A7809
S21400B0100A23FB181B881C494000821892018A18D4
S21400B020D35C1A007B6913437B61FB1D1A780A23E5
S21400B030FB181B88013399B20E4B5200D152FB1DF0
S21400B0401B781800114B98471323FB181B78002B0E
S21400B05007D01323FB1800221A707B691B027B6142
S21400B06090E77B691800BD4606B080BDE806002064
S21400B07069A400008C0700208807002084070020B1
S21400B080B1A400000007002004070020A9A90000C2
S21400B09080B500AF0020034B984703001800BD465C
S21400B0A080BDC04651AF000080B586B000AF02003C
S21400B0B0FB1D1A70FB1D00221A70264B98470300D2
S21400B0C03B61FB1D1A780F23FB1823498A5C1A7014
S21400B0D0FB1D19780F23FB181A78204B49008A1895
S21400B0E05200D35A7B617B69402B25D1FB1D1B7810
S21400B0F01B4AD35CDBB201225340DBB2002B1BD0D1
S21400B100FB1D1B78174AD35CDBB201225340DBB22F
S21400B110002B11D0FB1D1B78124A0121D154FB1DB8
S21400B1201B780F22BA18127851424A41D2B2110047
S21400B130094AD15400237B617B694022D31ABB6045
S21400B1403B691800084B9847BB681800BD4606B018
S21400B15080BDC04669A4000018080020140800201E
S21400B1602008002024080020B1A4000080B582B08A
S21400B17000AF0200FB1D1A70FB1D1B781800054B64
S21400B180984703005A1E9341DBB21800BD4602B032
S21400B19080BDC046A9B0000080B588B000AFB960D9
S21400B1A07A600F23FB18021C1A70BB68BB610F2362
S21400B1B0FB1800221A700F23FB181A784249130056
S21400B1C0DB009B1ACB1806331B78092B02D17B6851
S21400B1D05B007B600F23FB181B7818003B4B9847DF
S21400B1E003001A0001235340DBB2002B09D0384B72
S21400B1F01B78DBB201225340DBB2002BEAD07B681F
S21400B2005DE0344B984703007B610F23FB181A78E8
S21400B2101323FB1830498A5C1A700F23FB18187822
S21400B2201323FB1819781023FB182C4A40004118EA
S21400B23049008A5A1A801023FB181B884022D31A0A
S21400B240FB61FA697B689A4201D97B68FB610F2330
S21400B250FB1819781323FB181A781023FB181B8881
S21400B26049008A189201D2181D4BD318FA69B96999
S21400B27018001C4B98470F23FB1819781323FB184C
S21400B2801A78FB6998B21023FB181B88C31898B26B
S21400B290124B49008A185200011CD1527B691800D3
S21400B2A0114B9847BA69FB69D318BB617A68FB698A
S21400B2B0D31A7B607B68002B00D08BE70023180036
S21400B2C0BD4608B080BDC046E80600206DB100004F
S21400B2D00007002069A400001808002014080020B9
S21400B2E09407002025630100B1A4000080B582B059
S21400B2F000AF786039603A687B6819000020034B1D
S21400B300984703001800BD4602B080BD99B1000002
S21400B31080B500AF014B1800BD4680BD2469010012
S21400B32080B500AF074B1B681A68064B1B681B6886
S21400B3309978DB781B020B439BB2D3181800BD46E6
S21400B34080BDC0463408002080B584B000AF786069
S21400B3500A00FB1C1A70144B98470300FB607B68BE
S21400B3601B781A007B689B187B6011E07B685B7813
S21400B370042B12D07B685B78FA1C12789A4201D1B3
S21400B3807B680CE07B681B781A007B689B187B60E8
S21400B390FA687B689A42E9D800E0C04600231800A5
S21400B3A0BD4604B080BDC04621B3000080B584B061
S21400B3B000AF0200FB1D1A70BB1D0A1C1A70204B42
S21400B3C01B78002B01D1002336E01E4B1B681B6840
S21400B3D01B79FA1D12789A4201D300232CE0194BF0
S21400B3E01B681A68184B1A60184B98470300FB60D6
S21400B3F01CE0154B1B685B78042B0FD1124B1B68A7
S21400B4009B78FA1D12789A4208D10F4B1B68DB789E
S21400B410BA1D12789A4201D101230DE00A4B1A6830
S21400B420094B1B681B78D218074B1A60064B1B6823
S21400B430FA689A42DDD800231800BD4604B080BDE5
S21400B44030080020340800203808002021B300000F
S21400B45080B584B000AF0200FB1D1A70FB1D1B7880
S21400B46000211800214B984703001A00012353407F
S21400B470DBB2002B01D0002334E01D4B1B685A685A
S21400B480FB1D1B789B00D3181B68BB60BB68DB6882
S21400B490984703001A00FB1D1B7811001800134B79
S21400B4A0984703001A0001235340DBB2002B01D05B
S21400B4B0002317E00F4B1B68FB60FB680521180094
S21400B4C00D4B98470300FB60FB68002B05D0FB681C
S21400B4D09B781800094B9847EFE7C046BB685B6847
S21400B4E0984701231800BD4604B080BDADB30000E8
S21400B4F0340800203808002049B30000450F01003A
S21400B50080B584B000AF0200FB1D1A70BB1D0A1C7C
S21400B5101A70BB1D1A78FB1D1B78110018001F4BF4
S21400B520984703001A0001235340DBB2002B01D0DA
S21400B53000232EE01A4B1B68FB60FB6805211800F1
S21400B540184B98470300FB60FB68002B15D0FB6880
S21400B5509878FB68D978FB681A795B791B021343E5
S21400B5609BB21A00104B984703001A000123534061
S21400B570DBB2002BE1D000230BE0C0460B4B1B6870
S21400B5805A68FB1D1B789B00D3181B681B689847DE
S21400B59003001800BD4604B080BDC046ADB3000031
S21400B5A03808002049B30000D10F010034080020FD
S21400B5B080B500AF024B9847C046BD4680BDC0462A
S21400B5C0E51D010080B582B000AF124B1B78002B42
S21400B5D015D0FB1D00221A7009E0FB1D1B78180011
S21400B5E00D4B9847FB1D1A78FB1D01321A700B4B4A
S21400B5F01B681B681B79FA1D12789A42EDD3054B1F
S21400B60000221A70064B01221A80C046BD4602B0C0
S21400B61080BDC0463008002051B400003408002029
S21400B6202808002080B582B000AF174B1B78002B8F
S21400B63025D0FB1D00221A7019E0144B1B685A68AF
S21400B640FB1D1B789B00D3181B681B69002B09D0B9
S21400B6500E4B1B685A68FB1D1B789B00D3181B6893
S21400B6601B699847FB1D1A78FB1D01321A70074BA1
S21400B6701B681B681B79FA1D12789A42DDD3C046F8
S21400B680BD4602B080BDC046300800203408002009
S21400B69080B500AF074BDB88022B01D0002305E006
S21400B6A0054B02211800054B984701231800BD469C
S21400B6B080BDC0467811002028080020D91501005A
S21400B6C080B500AF0C4BDB88022B01D000230FE0C7
S21400B6D0094B9B88DBB21800084B984703009AB2C8
S21400B6E0074B1A80064B02211800064B9847012389
S21400B6F01800BD4680BDC0467811002079110100B3
S21400B7003C080020D915010080B500AF0B4BDB8844
S21400B710002B01D000230DE0084B5B88012B08D1DD
S21400B720074B1B88022293439AB2054B1A800123CB
S21400B73000E000231800BD4680BDC04678110020FA
S21400B7402808002080B500AF0A4BDB88002B01D00C
S21400B75000230CE0074B5B88002B07D1054B9B882A
S21400B760DBB21800044B9847030000E000231800E3
S21400B770BD4680BD78110020FD11010080B500AFE8
S21400B780084BDB88002B01D0002307E0054B5B88C5
S21400B790012B02D0C046002300E000231800BD465F
S21400B7A080BDC0467811002080B500AF0D4BDB8809
S21400B7B0002B01D0002312E00A4B5B88002B0DD132
S21400B7C0084B9B88DBB21800074B9847054B9B88B5
S21400B7D0DBB21800054B9847030000E00023180072
S21400B7E0BD4680BD78110020910E0100A511010014
S21400B7F080B500AF054B5B88DBB27F221340DBB21F
S21400B8001800034B9847C046BD4680BD78110020FF
S21400B8109115010080B500AF064BDB88002B01D0E8
S21400B820002303E0034B044A1A6101231800BD46B7
S21400B83080BDC04678110020F1B7000080B584B006
S21400B84000AFFB1D00221A70334B5B881A00FF23E3
S21400B8501340012B0ED002DC002B05D01EE0022B7D
S21400B8600ED0032B12D019E02C4B042118002C4BC1
S21400B870984715E0FB1D04221A702A4BBB600FE0A8
S21400B880FB1D03221A70284BBB6009E0FB1D062235
S21400B8901A70264B98470300BB6001E0002337E090
S21400B8A0FB1D1B78002B32D00F23FB1800221A70CA
S21400B8B016E00F23FB181B780F22BA181278B96807
S21400B8C08A18127891B21A4A5B00D31802330A1CFF
