:10600000682E0020B1610000AD610000AD610000AC
:106010000000000000000000000000000000000080
:10602000000000000000000000000000AD61000062
:106030000000000000000000AD61000031B400006D
:10604000AD610000AD610000AD610000118D000088
:106050002DC60000AD610000AD61000019F6000022
:10606000AD610000AD610000AD610000AD610000F8
:1060700009710000AD610000AD610000AD6100007C
:10608000AD610000AD6100007D6D0000AD610000FC
:10609000AD6100000000000000000000AD610000E4
:1060A000AD610000AD610000AD610000AD610000B8
:1060B0000000000010B5064C2378002B07D1054BDB
:1060C000002B02D0044800E000BF0123237010BD64
:1060D000C404002000000000AC250100084B10B5EE
:1060E000002B03D00749084800E000BF07480368B9
:1060F000002B00D110BD064B002BFBD09847F9E7D1
:1061000000000000C8040020AC250100AC250100FF
:106110000000000030B585B0114C5C436423089D3D
:106120006B43E418099B9C4664440E4B5843FA2386
:106130009B005943401880180A2202A90A4DA8471B
:106140000A2269462000A847084C02A92000084BF3
:10615000984769462000074B984705B030BDC046B8
:1061600010270000A0860100551B01000008002038
:106170000D1D0100C11C0100F0B583B00190094F55
:10618000094D2E0005E0A8470A300400B047A042A0
:10619000FCD900220C210198B8470028F3D003B0A5
:1061A000F0BDC046CD670000C98C0000FEE70000CE
:1061B000F8B52A4A2A4B9A4211D01A00294B9A4222
:1061C0000DD2294A03339B1A9B0801339B000022FE
:1061D000234822498C58845004329A42FAD1234AE7
:1061E000234B9A420AD2D34321495B1803218B43A4
:1061F00004339B18002102C29342FCD11D4AFF21A7
:106200001D4B8B439360FD3990235B001B4AD1509B
:106210001B4AD3780325AB4302242343D370D3789E
:106220000C27BB4308263343D370164B987B302290
:106230009043202210439873997BB943314399735B
:106240009A7BAA4322439A730F4A536880210B43D7
:1062500053600E4B98470E4B9847FEE7AC25010064
:1062600000000020C404002004000020C40400201A
:10627000680E002000ED00E00060000000700041AA
:10628000005000410048004100400041DD1A01007B
:10629000E593000010B5FA204000024B9847024BEE
:1062A000984710BD0D84000005640000F0B583B070
:1062B000164B1B680A2B01DD03B0F0BD144DA84737
:1062C0001448154EB047114C63682268A168E06815
:1062D0002769019764690094104CA0471048B047A3
:1062E0001048114B9847A847104B9847104B18601F
:1062F0000E4E104D1C00B047286023680A339842A8
:10630000F9D9024A136801331360D5E70C00002065
:1063100039630000641F0100B183000015610000B3
:106320008C1F01000008002079610000C98C00006A
:10633000FC0700200C08002080B500AF034B802232
:106340005201DA61C046BD4680BDC04600440041EE
:1063500080B582B000AF0200FB1D1A70064BFA1D1B
:10636000127811001F220A40012191400A001A6090
:10637000C046BD4602B080BD00E100E080B582B0FD
:1063800000AF78607B6800221A707B6800229A70E8
:106390007B6800229A807B6800229A717B680022C9
:1063A0001A817B6800225A707B6800229A727B688F
:1063B0000022DA727B6800221A737B6800229A73CB
:1063C0007B6800225A737B6800221A747B68002263
:1063D0005A617B6800229A617B6800221A777B6889
:1063E00000221A627B6800225A627B6800221A85AA
:1063F0007B6800225A857B6800229A85C046BD468C
:1064000002B080BD90B583B002AF494B00229A70B4
:10641000484B802212055A611420474B9847454B40
:10642000802212059A611420434B9847434B9847AA
:1064300003001A0001235340DBB21A1C012313404E
:10644000DAB23B4B01210A4090189A7802218A4324
:10645000111C021C0A439A70394B9847394B9847D4
:10646000394B9847394B9847394B9847394B9847A0
:1064700003001A0001235340DBB21A1C012313400E
:10648000DAB22B4B01210A4010009A7801218A438D
:10649000111C021C0A439A702F48032300930A23FD
:1064A000002209212D4CA047031E07D0204B0322B8
:1064B0002B499B18082218002A4B98472A48032387
:1064C0000093122300220921244CA047031E07D069
:1064D000174B0B2222499B1810221800214B98477A
:1064E000224B9847154B984703001900104B9B7897
:1064F0009B07DB0FDBB21A000B001343DBB21A1C45
:1065000001231340DAB20A4B01210A4090189A780D
:1065100002218A43111C021C0A439A70044B9B7887
:106520005A425341DBB21800BD4601B090BDC0468F
:1065300098080020004400410D840000118C0000E8
:10654000896F00000D7000002D6C0000516C000080
:10655000356D000071650000A81F0100296600006C
:1065600058080020A91B0100B41F0100216700008A
:1065700080B582B000AFFB1D03221A70BB1D002244
:106580001A702DE01F4B98471F4B98471F4B042153
:1065900018001F4B98470A201E4B9847C0461E4BB9
:1065A0001B889B06DB0FDBB2002B06D11A4B1B8826
:1065B000DB06DB0FDBB2002BF1D0174B1B88DB06B1
:1065C000DB0FDBB2012B0BD11449154B0422180051
:1065D000144B9847031E03D1BB1D01221A7006E01D
:1065E000FB1D1B78FA1D591E1170002BCAD1054BDB
:1065F0009847054B9847BB1D1B781800BD4602B055
:1066000080BDC046356D00002D6C0000C01F01002C
:106610007D700000B16C0000680B0020580800205D
:10662000C81F01005D1B010080B586B000AFF86097
:1066300008007A6019000B23FB18021C1A700A2349
:10664000FB180A1C1A701723FB1800221A7043E06B
:106650002B4B98472B4B98470B23FB181A78FB685A
:1066600011001800284B98479620284B9847C046A1
:10667000274B1B889B06DB0FDBB2002B06D1244B7C
:106680001B88DB06DB0FDBB2002BF1D0204B1B8815
:10669000DB06DB0FDBB2012B1ED11E4B1B78DBB2FE
:1066A0000A22BA1812789A4216D17B68002B0ED0B3
:1066B0000A23FB181A787968174B1800174B98476C
:1066C000031E09D11723FB1801221A700DE01723AE
:1066D000FB1801221A7008E02023FB181B782022E7
:1066E000BA18591E1170002BB2D1054B9847054BB3
:1066F00098471723FB181B781800BD4606B080BDCD
:10670000356D00002D6C00007D700000B16C000044
:10671000680B002057080020580800205D1B01006E
:1067200090B585B002AFFB1D00221A70BB1D05227B
:106730001A7027E01D4A1E480123009304230821F4
:106740001C4CA047031E06D01B4B01225A70FB1D98
:1067500001221A701DE0184B9B7802221340DBB215
:10676000002B0FD1154B984703001A00012353400B
:10677000DBB2002B06D0104B01225A70FB1D012208
:106780001A7006E0BB1D1B78BA1D591E1170002B34
:10679000D0D10B4B98470B4B98470B4B9847FB1DA1
:1067A0001B781800BD4603B090BDC046C81F01004D
:1067B000D01F01002966000098080020118C0000FD
:1067C00049700000356D00002D6C000090B58DB053
:1067D00002AF786008001100FB1C021C1A70BB1C81
:1067E0000A1C1A706A4B5B78012B05D0694B1800A4
:1067F000694B98470023C6E0684B98476849942244
:1068000080231B048B500120664B984764499822D3
:1068100080231B048B503220624B9847624803232D
:106820000093052300220821604CA04703001A00B2
:1068300001235340DBB2002B03D05D4B984700236C
:10684000A1E05C4B1B78DBB2302B04D0594B9B781A
:10685000DBB2322B12D8584A584803230093042342
:106860000721524CA04703001A0001235340DBB21A
:10687000002B03D04E4B9847002384E00823F918DF
:106880004F4A0B00106818609088988092799A712E
:106890000723CB181922002118004A4B9847FB1CEC
:1068A0001A780823FB18991D7B681800464B9847F7
:1068B000464B9847464B9847BB1C1B7801225340D8
:1068C000DBB2002B1FD0324B02225A70414B180012
:1068D000414B9847FB1C1B7803335B000822BA1816
:1068E0000D21D154FB1C1B785B0007330822BA181A
:1068F0000A21D154FB1C1B7804335B000822BA1810
:106900000021D1542EE0224B03225A70334B180041
:10691000314B9847FB1C1B7803335B000822BA18E5
:106920002C21D154FB1C1B785B0007330822BA18BA
:106930003121D154FB1C1B7804335B000822BA18A8
:106940000D21D154FB1C1B785B0009330822BA18B7
:106950000A21D154FB1C1B7805335B000822BA18AE
:106960000021D1540823FB1818001D4B9847030041
:10697000DAB20823FB18110018001A4B984732208E
:10698000084B984701231800BD460BB090BDC04688
:1069900098080020DC1F0100B18300000D7000008A
:1069A000004400410D840000FC1F01002966000026
:1069B0002167000058080020C81F010008200100BE
:1069C000102001002D1C010091890000356D000090
:1069D0002D6C000070170000B16C000060EA000030
:1069E0001D1D01007D70000080B582B000AFFB1D51
:1069F00000221A702E4B5B78032B19D0042B2CD05D
:106A0000022B00D049E02B4B1B78DBB2042B0BD1BF
:106A100029492A4B04221800294B9847031E37D1D5
:106A2000FB1D01221A7033E0FB1D02221A702FE0B9
:106A3000204B1B78DBB2042B0BD11F491F4B0422C8
:106A400018001F4B9847031E24D1194B04225A707B
:106A50002BE0FB1D04221A701CE0164B1B78DBB2E6
:106A6000152B11D11749154B03221800144B9847C9
:106A7000031E11D11449154B08221800144B9847D6
:106A8000FB1D03221A7008E0FB1D04221A7003E0AC
:106A9000C04602E0C04600E0C0460E4B9847FB1DD2
:106AA0001B7818000C4B9847C046BD4602B080BD0D
:106AB0009808002057080020C81F0100580800202F
:106AC0005D1B010030200100B30800205B0800209E
:106AD000ED890000216700002D6B000080B582B0B9
:106AE00000AFFB1D00221A700D4B5B78022B03D008
:106AF0000ADB042B08DC03E0FB1D02221A7004E011
:106B0000FB1D04221A7000E0C046064B9847FB1D8F
:106B10001B781800044B9847C046BD4602B080BDA4
:106B200098080020216700002D6B000080B582B01E
:106B300000AF0200FB1D1A70FB1D1B78022B0BD04F
:106B400002DC012B05D010E0032B08D0042B09D068
:106B50000BE0084B984708E0074B984705E0074BC8
:106B6000984702E0064B9847C046C046BD4602B073
:106B700080BDC046A16D0000AB6D0000B56D00008A
:106B8000BF6D000080B582B000AF0200FB1D1A701F
:106B9000FB1D1B78202B39D01E4B1B78DBB25A1CF7
:106BA000D1B21C4A117019001B4BFA1D12785A54AD
:106BB000184B1B78DBB23F2B03D9164B00221A70FF
:106BC00025E0FB1D1B780A2B21D1124B1B78DBB271
:106BD000023B114AD35CDBB20D2B18D10D4B1B7855
:106BE000DBB21A000C490D4B18000D4B9847094BAE
:106BF0001B78DAB20B4B1A70064B00221A700A4A45
:106C0000138810210B431380C04600E0C046BD46E8
:106C100002B080BDBB0800201008002058080020EA
:106C2000A91B010057080020680B002080B500AFA9
:106C3000054B00221A70054A138810218B431380DC
:106C4000C046BD4680BDC046BB080020680B002082
:106C500080B58EB000AF3B1D1800104B98473B1D10
:106C600002221A703B1D00229A803B1D00229A705E
:106C70003B1D00229A733B1D01225A733A1D08499D
:106C8000084B1800084B98471220084B9847044BB4
:106C900010225A73C046BD460EB080BD7D63000011
:106CA000002C0042BC080020397E00005163000027
:106CB00080B582B000AF0200BB1D1A80C0461C4BDD
:106CC000DB7BDBB25BB2002BF9DB194A184B1B886C
:106CD0009BB202218B439BB21380C046144BDB7BDB
:106CE000DBB25BB2002BF9DB114ABB1D1B8813839F
:106CF0000F4B10225A73C0460D4BDB7BDBB25BB2ED
:106D0000002BF9DB0A4B00221A82C046084BDB7BC2
:106D1000DBB25BB2002BF9DB054A054B1B889BB24B
:106D200002210B439BB21380C046BD4602B080BD1A
:106D3000002C004280B500AF0E4B3B221A730D4B66
:106D40003B229A73C0460B4BDB7BDBB25BB2002B62
:106D5000F9DB084A074B1B889BB202218B439BB28D
:106D60001380054A138820218B431380C046BD46FB
:106D700080BDC046002C0042680B002080B500AFEB
:106D8000054B10229A73054A138820210B43138068
:106D9000C046BD4680BDC046002C0042680B0020A6
:106DA00080B500AFC046BD4680BD80B500AFC046CF
:106DB000BD4680BD80B500AFC046BD4680BD80B534
:106DC00000AFC046BD4680BD80B582B000AF0200B6
:106DD000FB1D1A70064BFA1D127811001F220A4083
:106DE000012191400A001A60C046BD4602B080BD34
:106DF00000E100E080B582B000AF0200FB1D1A7018
:106E0000074AFB1D1B7819001F230B4001219940E5
:106E10000B0019008023D150C046BD4602B080BD92
:106E200000E100E080B584B000AF78607B681B684B
:106E3000FB60FB68DB695A1E9341DBB21800BD465C
:106E400004B080BD80B582B000AF7860C0467B687A
:106E50001800044B9847031EF9D1C046BD4602B046
:106E600080BDC046256E000080B582B000AF78605E
:106E70007B688022D2051A607B6800225A607B689A
:106E8000FF221A817B6800229A727B680022DA72E4
:106E90007B68962292011A627B6824220121995410
:106EA0007B682522012199547B6826220021995470
:106EB0007B682722002199547B6800229A627B68B4
:106EC00088225203DA607B682C22002199547B6867
:106ED0002D22002199547B6800221A637B680022CE
:106EE0005A637B6800229A637B680022DA637B68BE
:106EF00000225A617B6800221A827B680022DA76BF
:106F00007B6800221A767B6800221A777B68002251
:106F10005A767B6813229A767B6800225A77C0469D
:106F2000BD4602B080BD000080B584B000AF78607F
:106F30007B681B68FB607B681800064B9847FB6802
:106F40001B6802221A43FB681A60C046BD4604B0A3
:106F500080BDC046456E000080B584B000AF78604B
:106F60007B681B68FB607B681800064B9847FB68D2
:106F70001B68022293431A00FB681A60C046BD4694
:106F800004B080BD456E000080B590B000AF3B00FE
:106F90001800174B98473B002D22002199543B00C5
:106FA000962292011A623B0080225203DA603B0073
:106FB000104A1A633B00104A5A633B0001225242B6
:106FC0009A633B0001225242DA630C4B9847031E3E
:106FD00009D0C0463A000A490A4B18000A4B9847A4
:106FE000031EF7D1C046C046BD4610B080BDC046A6
:106FF000696E00000200160002001700B59700003D
:1070000000140042040900208575000080B500AF1F
:10701000084B1A7804210A431A70074B1800074BD3
:107020009847074B04229A750C20064B9847C04698
:10703000BD4680BD6C0B002004090020296F0000B4
:1070400000140042C96D000080B500AF074B1A78EC
:1070500004218A431A70064B1800064B98470C20EF
:10706000054B9847C046BD4680BDC0466C0B00200E
:1070700004090020596F0000F56D000090B585B03F
:1070800000AF78600A00FB1C1A700F23FB18002267
:107090001A7011E00F23FB181B787A68D3181A783E
:1070A000154B11001800154B98470F23FB181A7841
:1070B0000F23FB1801321A700F23FA18FB1C1278E9
:1070C0001B789A42E6D30E4B9B7DDBB21A0002235B
:1070D00013400CD10A4B02229A75094C064B18003A
:1070E000084B984703009BB22385C04600E0C0468A
:1070F000BD4605B090BDC046E0040020E18200001E
:10710000001400424983000080B582B000AF134BE9
:107110001B7EDAB2BB1D1A80104B9B7DDBB29AB28C
:10712000BB1DB91D09880A401A80BB1D1B8804229B
:10713000134006D0094B1B8D9BB2DBB21800084BE5
:107140009847BB1D1B880222134002D0054B98476D
:10715000C046C046BD4602B080BDC04600140042D5
:10716000856B000069710000B0B500AF0A4B1800D4
:107170000A4B9847031E08D0094C074B1800094BCF
:10718000984703009BB2238503E0054B02221A7542
:10719000C046BD46B0BDC046E00400208783000065
:1071A000001400424983000080B582B000AF7860CF
:1071B0007B6800221A70C046BD4602B080BD000048
:1071C00080B582B000AF02003960FB1D1A70FB1D54
:1071D0001B78012B0AD0022B0FD0002B14D10E4BA1
:1071E0000D4A91693A680A439A610FE00A4B0A4ACC
:1071F000D1693A680A43DA6108E0074B064A116A26
:107200003A680A431A6201E0172300E000231800DD
:10721000BD4602B080BDC0460004004080B582B0CB
:1072200000AF78607B6880221A707B6800225A70F9
:107230007B6801229A707B680022DA70C046BD46E6
:1072400002B080BD80B500AF054B9B78DBB21A0061
:10725000022313405A1E9341DBB21800BD4680BD85
:107260000020004180B584B000AF78607B681B6867
:10727000FB60FB68DB695A1E9341DBB21800BD4618
:1072800004B080BD80B582B000AF7860C0467B6836
:107290001800044B9847031EF9D1C046BD4602B002
:1072A00080BDC04665720000B0B58CB002AF78609A
:1072B00039607B681B68BB617B681B681800AB4B3F
:1072C000984703007B617B6914333B6100237B6239
:1072D00000233B620A23FB1800221A801F23FB189D
:1072E00000221A701E23FB1810221A703B681B8A9A
:1072F0008022D20193421CD08022D201934206DC2C
:10730000002B0DD080229201934224D035E0C02280
:10731000D201934228D080221202934212D02CE054
:107320001F23FB1800221A701E23FB1810221A704C
:1073300023E01F23FB1800221A701E23FB180822CB
:107340001A701AE01F23FB1800221A701E23FB1864
:1073500003221A7011E01F23FB1801221A701E234A
:10736000FB1810221A7008E01F23FB1801221A7064
:107370001E23FB1808221A70C0463B681A683B6837
:10738000DB681A433B685B6913433A68128A13430C
:107390003A68127E120213433A682621525C520761
:1073A00013437B621D23FB1800221A703B685B6845
:1073B000FB60FB68002B1ED08022520593424FD108
:1073C0003B6827229B5C01225340DBB2002B46D056
:1073D0003B681D6A3B69DBB21800654B98470100AA
:1073E0001D23FC180A23FB181A002800614B98473C
:1073F0000300237033E03B6827229B5C002B14D0F2
:107400003B68186A3B68996A1D23FC181F23FB1808
:107410001D780A23FA181E23FB181B7800932B00F3
:10742000554DA847030023701AE03B681D6A3B696D
:10743000DBB218004E4B98471D23FC181F23FB1886
:1074400019780A23FA181E23FB181B7800930B00E7
:1074500001002800484DA8470300237000E0C04603
:107460001D23FB181B78002B03D01D23FB181B7852
:1074700077E03B685B7E002B03D03B689A7EBB695C
:107480009A737B6818003D4B98470A23FB181A88AB
:10749000BB699A817A6AFB6813437B623B68272247
:1074A0009B5C01225340DBB2002B03D07B6A042299
:1074B00013437B623B685B7E9A023B681B7F5B02E7
:1074C0001A433B685B7F1B021A433B6824215B5CC9
:1074D0005B041A433B6825215B5C1B0413433B623E
:1074E0003B689B7A1A003B6A13433B623B68DB7A3A
:1074F0001A003B6A13433B623B681B89FF2B0BD08E
:107500007B6A8022520413437B623B681B891A000A
:107510003B6A13433B6208E03B68DB7E002B04D0F0
:107520007B6A8022D20413437B623B682C229B5CE3
:10753000002B03D1124B9847031E03D07B6A802295
:1075400013437B627B6818000C4B9847BB693A6A0F
:107550005A607B681800094B9847BB697A6A1A60C1
:1075600000231800BD460AB0B0BDC046DD7C000057
:10757000D591000057780000D57800008572000092
:107580004572000090B593B000AFF860B9607A60C2
:107590003F23FB1800221A70FB68BA681A60FB6868
:1075A0001B68BB63FB681B681800634B98470300AC
:1075B0007B637B6B02333B637B6B1433FB62BB6B84
:1075C0001B680122134001D00523B1E0BB6B1B688F
:1075D0000222134001D01C23AAE001223B6B9A40F7
:1075E000130019000220554B98472823FB18180058
:1075F000534B98477B682D229A5C2823FB181A70FE
:10760000FB6ADBB22822BA18110018004D4B9847CC
:10761000FB6ADBB218004C4B98477B682D229B5CC1
:1076200000211800494B98477B68DA7AFB685A7149
:107630007B6824229A5CFB689A717B6825229A5C9D
:10764000FB68DA717B68DA7EFB681A727B681A7FE6
:10765000FB685A723F23FC187A68FB681100180017
:107660003B4B9847030023703F23FB181B78002BEC
:1076700003D03F23FB181B785AE02423FB18180083
:10768000344B98472423FB1800225A702423FB18FC
:1076900000229A707B681A6B1423FB181A607B68AF
:1076A0005A6B1423FB185A607B689A6B1423FB18DF
:1076B0009A607B68DA6B1423FB18DA604723FB18A7
:1076C00000221A702CE04723FB181A781423FB18A9
:1076D0009200D3583B643B6C002B09D14723FB1825
:1076E0001A78BB68110018001B4B984703003B64D5
:1076F0003B6C01330DD03B6CDAB22423FB181A70BB
:107700003B6C1B0CDBB22422BA1811001800134B7F
:1077100098474723FB181A784723FB1801321A7041
:107720004723FB181B78032BCDD93F23FB181B786D
:107730001800BD4613B090BDDD7C0000C171000093
:10774000A971000069900000AD900000957A0000DA
:10775000A97200001D720000217B00009D930000B3
:1077600080B582B000AF78607B6800221A70C04696
:10777000BD4602B080BDF0B58DB000AFB860F96015
:107780003A607B60002300243B627C62002300247B
:10779000BB61FC613F23FB6253E0FB6A203B002B93
:1077A00004DB01229A4013007B610BE0FB6A20227C
:1077B000D31A0122DA4013000021FA6A91400A002C
:1077C00013437B610122FB6A9A4013003B61BB6952
:1077D000FC69DB186441BB61FC61BB683A691A4013
:1077E0001500FB687A691A4016002B00334307D056
:1077F000BB6901221343BB61FB6900221343FB6198
:107800007A68FB699A4219D87A68FB699A4203D16F
:107810003A68BB699A4211D8B969FA693B687C68D1
:10782000C91AA2410B001400BB61FC613A6A3B69B2
:1078300013433B627A6A7B6913437B62FB6A013BB9
:10784000FB62FB6A002BA8DA3B6A7C6A1800210005
:10785000BD460DB0F0BD80B586B000AFF860B96030
:107860007A601623FB1800221A80BB683B61BB6854
:107870005A08FB689A4201D2402326E0BB685B08A5
:107880003B610AE03A69FB68D31A3B611623FB1897
:107890001A881623FB1801321A803A69FB689A424B
:1078A000F0D21623FB181622BA181288013A1A8051
:1078B0001623FB181B88FF2B01D9402305E07B68AA
:1078C0001622BA1812881A8000231800BD4606B086
:1078D00080BD0000F0B5A1B000AFF864B9647A646F
:1078E0004322BA181370002300243B677C670023EF
:1078F0000024BB66FC6600230024BB67FC670023F2
:107900007B66582340229446BC4463441A78FB6C3F
:107910005A43BB6C9A4201D94023B3E04323FB187E
:107920001B78002B3DD1582340229446BC4463442D
:107930001B78DBB23B6100237B61FB6CBB600023E7
:10794000FB60524CBA68FB6838697969A04703004C
:107950000C001B00FB650023BB65BB6C3B60002378
:107960007B60B86DF96D3A687B68494CA0470300AD
:107970000C003B677C67002101223B6F7C6FC91ABA
:10798000A2410B001400BB66FC66BB6E1B0CFA6EBA
:1079900016041E43BB6E1D043300BB670023FB6748
:1079A0006AE04323FB181B78012B65D1FB6C3B631A
:1079B00000237B63582340229446BC4463441B78D5
:1079C000DBB2BB620023FB62304CBA6AFB6A386BE5
:1079D000796BA04703000C00BB65FC65BB6C3B6288
:1079E00000237B62BB6DFC6D1A002300386A796A44
:1079F000274CA04703000C007B667A6E80239B0116
:107A00009A4201D940233DE0BB6CBB610023FB617E
:107A1000B969FA690B005B0F1000C000F863F86BDE
:107A20001843F8630B00DB00BB63BB6DFC6D1A00F1
:107A30002300B86BF96B164CA04703000C00BB6524
:107A4000FC65BB6DFC6DD9B27B6EDBB2DB00DAB2DC
:107A5000172340208446BC4463448A1A1A701723B3
:107A600040229446BC4463441B785B031A007B6E3F
:107A70001343BB670023FB67BB6FFC6F9AB27B6C41
:107A80001A8000231800BD4621B0F0BD650001003A
:107A90007777000080B584B000AF0200FB1D1A703C
:107AA000BB1D0A1C1A701A4B1B7801225340DBB213
:107AB000002B03D1BB1D1B78002B1BD00C23FB1804
:107AC0001800144B98470C23FB18FA1D12781A70F3
:107AD0000C23FB18190013200F4B984713200F4B52
:107AE00098470B4BFA1D12785A70094B01221A70F5
:107AF000002308E0064B5B78FA1D12789A4201D108
:107B0000002300E01D231800BD4604B080BDC04620
:107B1000640500206177000069900000AD900000CE
:107B200080B582B000AF78600A00FB1C1A707B68D9
:107B30004D4A93423FD04C4A934206D84B4A934217
:107B40000FD04B4A934221D089E04A4A934200D158
:107B50005BE0494A934200D16CE0484A93423FD0EF
:107B60007DE0FB1C1B78012B0AD002DC002B05D02A
:107B700075E0022B06D0032B06D070E0404B6FE07F
:107B8000404B6DE0404B6BE0404B69E0FB1C1B78C9
:107B9000012B0AD002DC002B05D060E0022B06D0BE
:107BA000032B06D05BE003235AE0394B58E0394BF6
:107BB00056E0394B54E0FB1C1B78012B0AD002DC49
:107BC000002B05D04BE0022B06D0032B06D046E05D
:107BD000324B45E0324B43E0324B41E0324B3FE029
:107BE000FB1C1B78012B0AD002DC002B05D036E0F1
:107BF000022B06D0032B06D031E02C4B30E02C4B6F
:107C00002EE02C4B2CE02C4B2AE0FB1C1B78012B8C
:107C10000AD002DC002B05D021E0022B06D0032B7A
:107C200006D01CE0254B1BE0254B19E0254B17E047
:107C3000254B15E0FB1C1B78012B0AD002DC002B26
:107C400005D00CE0022B06D0032B06D007E01F4B1B
:107C500006E01F4B04E01F4B02E01F4B00E0002337
:107C60001800BD4602B080BD00100042000800426E
:107C7000000C004200180042001C004200140042A8
:107C800003000400030005000300060003000700D2
:107C90000300010003001E0003001F000300080092
:107CA0000300090003000A0003000B00030010009A
:107CB00003001100030012000300130003000C0076
:107CC00003000D0003000E0003000F000300160068
:107CD00003001700030018000300190090B58BB0D3
:107CE00000AF78600C23FB180F4A13CA13C313CAE2
:107CF00013C300237B620EE00C23FB187A6A920008
:107D0000D3581A007B689A4202D17B6ADBB206E044
:107D10007B6A01337B627B6A052BEDD90023180057
:107D2000BD460BB090BDC0464420010080B582B076
:107D300000AF78607B6800221A70C046BD4602B072
:107D400080BD000080B582B000AF02003960FB1D2D
:107D50001A70FB1D1B78012B0AD0022B0FD0002BB1
:107D600014D10E4B0D4A91693A680A439A610FE0AB
:107D70000A4B0A4AD1693A680A43DA6108E0074BBC
:107D8000064A116A3A680A431A6201E0172300E0C2
:107D900000231800BD4602B080BDC046000400406C
:107DA00080B582B000AF78607B6880221A707B68F3
:107DB00000225A707B6801229A707B680022DA7078
:107DC000C046BD4602B080BD80B584B000AF7860CB
:107DD0007B681B68FB60FB68DB7BDBB21A008023DF
:107DE00013405A1E9341DBB21800BD4604B080BD5B
:107DF00090B587B000AF78600823FB180D4A13CA0E
:107E000013C300237B610DE00823FB187A699200FD
:107E1000D2587B689A4202D17B69DBB206E07B696B
:107E200001337B617B69022BEED900231800BD462C
:107E300007B090BD5C20010090B58DB000AFF86038
:107E4000B9607A602E23FB1800221A802D23FB18BC
:107E500000221A702C23FB1800221A702A23FC1807
:107E6000BB681800C34B9847030023702423FB18FA
:107E7000C14A1188198092789A701C23FB18BF4A56
:107E80001168196092889A80FB68BA681A607B68EA
:107E90009B78082B08D12A23FB181B780333012277
:107EA000134001D01723C0E17B689A78FB681A71F0
:107EB000BB681B889BB21A000123134001D0052325
:107EC000B3E1BB68DB7BDBB21A001023134001D0A7
:107ED0001C23AAE1BB681B889BB21A000223134033
:107EE00001D01C23A1E17B681B7C002B17D0182339
:107EF000FB181800A24B98477B689B69DAB21823DD
:107F0000FB181A701823FB1801225A707B685B69F2
:107F1000DBB21822BA18110018009A4B98477B68F8
:107F20001B7F002B17D01823FB181800944B984781
:107F30007B685B6ADAB21823FB181A701823FB18E7
:107F400001225A707B681B6ADBB21822BA18110032
:107F500018008C4B98472A23FB181A781C23FB180F
:107F60005200D35A19000220874B98477B689B78B0
:107F7000082B0BD12A23FB181B785A1C1C23FB1837
:107F80005200D35A190002207F4B98471423FB1844
:107F900018007E4B98477B681A781423FB181A70D8
:107FA0002A23FB181B782422BA18D35C1422BA188F
:107FB00011001800764B98472A23FB181B782422BF
:107FC000BA18D35C1800734B98477B689A787B6823
:107FD0009B791343DBB29AB27B681B89134399B236
:107FE0007B689A882E23FB180A431A807B685B788B
:107FF000002B08D02E23FB182E22BA1812888021BD
:1080000009010A431A80C046FB681800624B984772
:10801000031EF9D1BB682E22BA1812881A807B6819
:108020005B7B002B03D02D23FB1804221A707B6886
:108030009B7B002B07D02D23FB182D22BA1812781A
:1080400001210A431A70C046FB681800524B98473A
:10805000031EF9D1BB68FF221A712D23FB181B7870
:10806000002B0BD0C046FB6818004B4B9847031EF3
:10807000F9D1BB682D22BA1812785A712C23FB183B
:108080007A68927A1A702B23FB1800221A701CE06F
:108090002B23FB181B787A68D318DB7A002B0DD0C2
:1080A0002B23FB181B7810229A401300D9B22C23E3
:1080B000FB182C22BA1812780A431A702B23FB18CB
:1080C0001A782B23FB1801321A702B23FB181B780C
:1080D000012BDDD9C046FB6818002F4B9847031EC3
:1080E000F9D1BB682C22BA1812789A71C046FB6885
:1080F0001800294B9847031EF9D1FB681B79042B04
:1081000005D0082B00D16CE0002B47D08CE0C04696
:10811000FB681800204B9847031EF9D17B68282282
:108120009A5CBB681A74C046FB6818001A4B9847E3
:10813000031EF9D17B6829229A5CBB681A75C04678
:10814000FB681800144B9847031EF9D17B682A225C
:108150009A5CBB681A76C046FB6818000E4B9847BD
:10816000031EF9D17B682B229A5CBB685A760023E8
:108170005BE0C046F17D0000682001006C2001003A
:10818000A17D00009D930000457D00002D7D000035
:1081900069900000AD900000C97D0000C046FB68FA
:1081A0001800244B9847031EF9D17B681A8DBB68D1
:1081B0001A82C046FB6818001E4B9847031EF9D16F
:1081C0007B685A8DBB681A83C046FB681800194B40
:1081D0009847031EF9D17B689A8DBB685A830023A8
:1081E00023E0C046FB681800124B9847031EF9D1E4
:1081F0007B689A6ABB681A61C046FB6818000D4B21
:108200009847031EF9D17B68DA6ABB689A61C04659
:10821000FB681800074B9847031EF9D17B681A6B5F
:10822000BB68DA61002300E017231800BD460DB0DB
:1082300090BDC046C97D000080B582B000AF7860B7
:108240007B6880221A707B6800225A707B6801224A
:108250009A707B680022DA70C046BD4602B080BDCD
:1082600080B584B000AF02003960FB1D1A700C238A
:10827000FB181800104B98470C23FB1880221A702B
:108280003B681A780C23FB185A703B685A780C2309
:10829000FB189A703B689A780C23FB18DA700C2351
:1082A000FA18FB1D1B7811001800044B9847C046B4
:1082B000BD4604B080BDC046398200009D930000D9
:1082C00080B582B000AF78607B688022002199542D
:1082D0007B68812200219954C046BD4602B080BD12
:1082E00080B584B000AF78600A00FB1C1A707B6810
:1082F00080229B5CDBB20133DAB20F23FB187F21B3
:108300000A401A707B680F22BA18802112785A54DA
:108310007B6880229B5CDAB27B6881215B5CDBB28C
:108320009A4203D17B681800064B98470F23FB182D
:108330001B787A68F91C0978D154C046BD4604B050
:1083400080BDC046C182000080B584B000AF7860B7
:108350007B6881229B5CDBB20133DAB20F23FB180E
:108360007F210A401A707B680F22BA188121127887
:108370005A540F23FB181B787A68D35CDBB21800C1
:10838000BD4604B080BD80B582B000AF78607B6828
:1083900080229B5CDAB27B6881215B5CDBB2D31A02
:1083A0005A1E9341DBB21800BD4602B080BD0000EA
:1083B00080B584B000AF78607B681800084B9847A0
:1083C00002000F23FB181A700F23FB181A787B6822
:1083D00011001800034B9847C046BD4604B080BD4D
:1083E0001D1D0100518A000080B582B000AF02005F
:1083F000BB1D1A80BB1D1B881800034B9847C04645
:10840000BD4602B080BDC046898A000080B582B0FA
:1084100000AF0200BB1D1A80BB1D1B881800034B58
:108420009847C046BD4602B080BDC046318B0000B3
:10843000B0B582B000AF02003960FB1D1A70FB1DA1
:108440001B787F2B32D92F4CFB1D1B781A000F2372
:108450001340083B99082B4AFB1D1B7818000F237B
:108460000340083B9B0806339B00D31804331B686A
:10847000FA1D1278100003220240D200FF20904023
:108480000200D2431A403B689B01FF201840FB1DAD
:108490001B781D0003232B40DB00984003001A4388
:1084A0008B1D9B00E31804331A6027E0164CFB1D5C
:1084B0001B785BB29B081449FA1D127852B29208DD
:1084C000C03292005258F91D09780800032101407A
:1084D000C900FF2088400100C94311403A68920159
:1084E000FF201040FA1D1278150003222A40D20006
:1084F000904002000A43C0339B001A51C046BD465B
:1085000002B0B0BD00ED00E000E100E080B500AFDA
:1085100001235B4203211800054B9847054B0022BD
:108520009A60044B00221A6000231800BD4680BDEB
:108530003184000010E000E080B582B000AF0C4B49
:1085400000221A60FB1D00221A7009E0FB1D1B7837
:108550001800084B9847FB1D1A78FB1D01321A7052
:10856000FB1D1B780F2BF1D9C046BD4602B080BD64
:10857000D00A0020D586000080B500AF044B1B68F0
:108580005A1C034B1A60034B9847C046BD4680BD3A
:10859000D00A00207187000080B586B000AFF86077
:1085A000B9603B60FB1D1A701723FB1800221A707C
:1085B00014E01723FB181A7844491300DB009B1AB8
:1085C0009B005B5C01225340DBB2002B0CD11723D4
:1085D000FB181A781723FB1801321A701723FB189F
:1085E0001B780F2BE5D900E0C0461723FB181B783A
:1085F0000F2B01D9012365E0354B9847FB68002B11
:1086000013D0FB6801221A70FB681722BA1812787F
:108610005A701723FB181A782C491300DB009B1A99
:108620009B00CB181433FA681A601723FB181A78CA
:1086300026491300DB009B1A9B0001225A54172382
:10864000FB181A7821491300DB009B1A9B00CB18FA
:108650000433BA681A601723FB181A781B491300F1
:10866000DB009B1A9B00CB180833BA681A601723EB
:10867000FB181A7815491300DB009B1A9B00CB18D6
:108680000C33FA1D12781A701723FB181A780F4949
:108690001300DB009B1A9B00CB1810333A681A605A
:1086A0001723FB181A7809491300DB009B1A9B005B
:1086B000CB1818333A6A1A601723FB181B785A1E16
:1086C0009341DBB21800BD4606B080BD1009002002
:1086D0009D88000080B582B000AF0200FB1D1A70BB
:1086E000FB1D1B780F2B3BD8FB1D1A781E4913006E
:1086F000DB009B1A9B00CB1814331B68002B22D085
:10870000FB1D1A7818491300DB009B1A9B00CB183D
:1087100014331B6800221A70FB1D1A7812491300CB
:10872000DB009B1A9B00CB1814331B68FF225A7086
:10873000FB1D1A780C491300DB009B1A9B00CB1819
:10874000143300221A60FB1D1A7807491300DB005E
:108750009B1A9B0000225A54044B9847C04600E0E5
:10876000C046BD4602B080BD10090020D988000077
:1087700080B582B000AFFB1D00221A7081E0FB1DA6
:108780001A7844491300DB009B1A9B005B5C002BAA
:1087900072D0FB1D1A783F491300DB009B1A9B0027
:1087A000CB1804331B68002B12D0FB1D1A783949F3
:1087B0001300DB009B1A9B00CB1804331B68591E67
:1087C00034481300DB009B1A9B00C3180433196064
:1087D000FB1D1A782F491300DB009B1A9B00CB1856
:1087E00004331B68002B47D1FB1D1A78294913005D
:1087F000DB009B1A9B00CB180C331B78012B14D188
:10880000FB1D1A78FB1D197822480B00DB005B1A50
:108810009B00C318083319681E481300DB009B1A1D
:108820009B00C3180433196004E0FB1D1B7818007B
:10883000194B9847FB1D1A7816491300DB009B1A49
:108840009B00CB1810331B68002B15D0FB1D1A782A
:1088500010491300DB009B1A9B00CB1810331968DA
:10886000FB1D1A780B481300DB009B1A9B00C318F2
:1088700018331B6818008847FB1D1A78FB1D01324E
:108880001A70FB1D1B780F2B00D878E7C046BD4639
:1088900002B080BD10090020D586000080B500AF71
:1088A0000A4B1B78DBB2002B06D1094B9847094BCA
:1088B0001A7802210A431A70044B1B78DBB2013389
:1088C000DAB2024B1A70C046BD4680BD6605002074
:1088D00001B400006C0B002080B500AF0D4B1B787D
:1088E000DBB2002B06D00B4B1B78DBB2013BDAB2BC
:1088F000084B1A70074B1B78DBB2002B06D1064BD6
:108900009847064B1A7802218A431A70C046BD4622
:1089100080BDC046660500200D8500006C0B002060
:1089200080B582B000AF0200FB1D1A70FB1DFA1D5E
:1089300012780F210A401A70FB1D1B78092B04D8EE
:10894000FB1D1B783033DBB203E0FB1D1B78373394
:10895000DBB21800BD4602B080BD80B582B000AF6A
:108960000200FB1D1A70FB1DFA1D1278303A1A70B6
:10897000FB1D1B78092B04D9FB1DFA1D1278073A41
:108980001A70FB1D1B781800BD4602B080BD0000A8
:1089900090B585B000AFF860B960FB1D1A7017E0A4
:1089A000BC68631CBB60FB681B781B09DBB218004A
:1089B0000D4B984703002370BC68631CBB60FB68C9
:1089C0005A1CFA601B781800074B98470300237065
:1089D000FB1D1B78FA1D591E1170002BE0D1C046FB
:1089E000BD4605B090BDC0462189000080B584B069
:1089F00000AFF860B960FB1D1A701BE0FB685A1CE1
:108A0000FA601B781800114B984703001B01DAB27B
:108A1000BB681A70FB685A1CFA601B7818000B4B75
:108A2000984703001900BB685A1CBA601A780A43B9
:108A3000D2B21A70FB1D1B78FA1D591E1170002B43
:108A4000DCD1C046BD4604B080BDC0465B89000095
:108A500080B582B000AF78600A00FB1C1A70084B2A
:108A60009847031E07D0FB1C1A787B68110018007A
:108A7000044B9847C046C046BD4602B080BDC046C4
:108A800075AC000015A30000F0B583B000AFBB1DAE
:108A900018801F4B1B78002B16D0BB1D1B881D4850
:108AA0004343190000231A001B4B0024C9186241DC
:108AB00008001100194C1A4A0023A04703000C00BB
:108AC0001800184B98471FE0BB1D1B889BB21D0068
:108AD00000231E00144C154A002328003100A04733
:108AE00003000C00190022000B4B0024C91862413E
:108AF00008001100094C0A4A0023A04703000C009B
:108B00001800084B9847C046BD4603B0F0BDC046AC
:108B10002400002000093D00BFCF6A0025000100AD
:108B2000C0CF6A000100002065000100006CDC027B
:108B3000F0B583B000AFBB1D18801F4B1B78002B16
:108B400016D0BB1D1B881D484343190000231A0083
:108B50001B4B0024C918624108001100194C1A4A25
:108B60000023A04703000C001800184B98471FE093
:108B7000BB1D1B889BB21D0000231E00144C154A10
:108B8000002328003100A04703000C001900220038
:108B90000B4B0024C918624108001100094C0A4A15
:108BA0000023A04703000C001800084B9847C0465C
:108BB000BD4603B0F0BDC0462400002000093D00C2
:108BC000571B000025000100581B00000100002079
:108BD00065000100006CDC0280B500AF044B1B6A2D
:108BE000202213405A1E9341DBB21800BD4680BDBF
:108BF0000044004180B500AF044B1B6A4022134083
:108C00005A1E9341DBB21800BD4680BD00440041AE
:108C100080B500AF054AA023D2588023DB03134060
:108C20005A1E9341DBB21800BD4680BD004400418E
:108C300080B582B000AF0200FB1D1A70064BFA1D12
:108C4000127811001F220A40012191400A001A6087
:108C5000C046BD4602B080BD00E100E080B584B0F2
:108C600000AF3B0000221A803B0000229A703B00BC
:108C70000022DA703B0001221A713A000C490D4BB8
:108C800018000D4B98470B4B18000C4B9847FA23D4
:108C90009A00084B11001800094B9847044B80229A
:108CA000DA710320074B9847C046BD4604B080BD2B
:108CB00000140040FC0A00209D9D0000AD9B0000B8
:108CC000559F0000318C000080B500AF024B1B683F
:108CD0001800BD4680BDC0466805002080B582B042
:108CE00000AF084B1800084B984703007B607B6877
:108CF000064A934201D9012300E000231800BD4633
:108D000002B080BDFC0A00202D9E0000DE030000A2
:108D100080B500AF064B80221A72064B1B685A1CA6
:108D2000044B1A60044B9847C046BD4680BDC04600
:108D30000014004068050020F196000080B582B064
:108D400000AF02003960FB1D1A70FB1D1B78012B60
:108D50000AD0022B0FD0002B14D10E4B0D4A916973
:108D60003A680A439A610FE00A4B0A4AD1693A68A5
:108D70000A43DA6108E0074B064A116A3A680A4377
:108D80001A6201E0172300E000231800BD4602B07C
:108D900080BDC0460004004080B500AF024B98473C
:108DA000C046BD4680BDC0469198000080B500AF6A
:108DB000024B9847C046BD4680BDC046E5980000BE
:108DC00080B500AF054B5B78DBB25BB2002B01DAFC
:108DD000012300E000231800BD4680BD000C0040C8
:108DE00080B500AF08210020074B9847074B0122B0
:108DF0001A70C046054B1B78DBB21A0001231340E2
:108E0000F8D1C046BD4680BD3D8D0000000C00403D
:108E100080B586B000AF02003960FB1D1A70FB1DE3
:108E20001B787B61FB1D1B783B613B681B781B0239
:108E30001A007B6913437B613B685B78002B04D08D
:108E40007B698022D20213437B613B685B7A002BF3
:108E500004D07B698022120313437B613B685B680B
:108E6000012B2CD93B685A683B685B68013B134077
:108E70001AD10023FB600223BB6005E0FB680133CD
:108E8000FB60BB685B00BB603B685A68BB689A428A
:108E9000F4D8FB681B023A6913433B617B6980226B
:108EA000520313437B610AE03B685B681B023A692B
:108EB00013433B617B698022920213437B613B68D1
:108EC0001B7A002B04D07B698022920313437B61C1
:108ED000C046134B9847031EFBD1124B9847124ACA
:108EE000FB1D1B781370C0460D4B9847031EFBD12A
:108EF0000E4B3A699A60C046094B9847031EFBD156
:108F00000A4B0A4A51688022520211407A690A4388
:108F10005A60074B9847C046BD4606B080BDC04664
:108F2000C18D0000998D0000080C0040000C00402D
:108F3000AD8D000080B582B000AF0200FB1D1A703D
:108F4000C0460E4B9847031EFBD10D4B98470D4A68
:108F5000FB1D1B781370C046084B9847031EFBD1BE
:108F6000094B094A5268802149020A435A60074B5B
:108F70009847C046BD4602B080BDC046C18D0000C6
:108F8000998D0000040C0040000C0040AD8D0000E5
:108F900080B586B000AF0200FB1D1A70C0462A4B98
:108FA0009847031EFBD1294B9847294AFB1D1B7884
:108FB0001370C046244B9847031EFBD1254B5B68BA
:108FC000DB04DB0EDBB21800234B984703007B6108
:108FD0001F4AFB1D1B7813701E4B5B68DB02DB0F07
:108FE000DAB21323FB181A701C4AFB1D1B7813708E
:108FF000C046154B9847031EFBD1164B9B681B02BE
:109000001B0C9BB2FB60164B98471323FB181B7875
:10901000002B09D1FB68012B06D9124BF96878693E
:10902000984703007B610AE01323FB181B78002B91
:1090300005D0FB6801337A69DA4013007B617B69F4
:109040001800BD4606B080BDC18D0000998D00009E
:10905000040C0040000C004089BD0000080C0040DA
:10906000AD8D000091FE000080B584B000AF02001D
:109070003960FB1D1A70FB1D1B78FB603B681B7879
:109080001B021A00FB681343FB60FB1D1B781800D2
:10909000044B9847044BFA6892B25A80C046BD46CA
:1090A00004B080BDF5900000000C004080B582B097
:1090B00000AF0200FB1D1A700A4B98470A4AFB1DBD
:1090C0001B7813700949094B5B889BB28022D2013F
:1090D00013439BB24B80064B9847C046BD4602B037
:1090E00080BDC046998D0000020C0040000C00407D
:1090F000AD8D000080B584B000AF0200FB1D1A707A
:109100001C4B98471C4AFB1D1B7813701B4B5B883C
:109110001B051B0FDBB2FB60184A538818490B4034
:109120005380164A154B5B889BB216490B409BB285
:109130005380C046114B5B889BB21A008023DB0131
:109140001340F7D10D4AFB68DBB2191C0F230B400B
:10915000D9B25388081C0F210140080208490B406E
:10916000191C031C0B435380074B9847C046BD4650
:1091700004B080BD998D0000020C0040000C00403E
:10918000FFF0FFFFFFBFFFFFAD8D000080B582B095
:1091900000AF0200FB1D1A70094B9847094AFB1DDE
:1091A0001B781370084A084B5B889BB207490B4336
:1091B0009BB25380064B9847C046BD4602B080BD67
:1091C000998D0000020C0040000C004000C0FFFF21
:1091D000AD8D000080B584B000AF0200FB1D1A7099
:1091E0000D4B98470D4AFB1D1B7813700C4B5B8889
:1091F0001B051B0FDAB20F23FB181A70094B984797
:109200000F23FB181B781800074B98470300180022
:10921000BD4604B080BDC046998D0000020C0040E0
:10922000000C0040AD8D0000918F000080B584B02F
:1092300000AF0200FB1D1A700F23FB18FA1D1278F5
:10924000D2091A700E23FB18FA1D127852091A70EF
:109250000D4BBB600F23FB181B78002B0FD10F2386
:10926000FB181B789B0010229446BC446344083BC7
:109270001A680E23FB181B78DB01D31800E00023CB
:109280001800BD4604B080BD0044004180B588B0E0
:1092900000AFF860B9607A600023FB617B68DB781F
:1092A00001225340DBB2002B35D07B681B78802B2A
:1092B0000BD0FB69802252021343FB617B681B7851
:1092C0001B061A00FB691343FB617B685B78002B6C
:1092D00003D07B685B78022B10D1FB69802292025D
:1092E0001343FB617B689B78002B04D0FB698022D1
:1092F000D2021343FB61FB68BA685A607B685B78F3
:10930000012B03D07B685B78022B07D1FB69224AD3
:109310001340FB6102E0FB68BA685A60BB681B043B
:109320001B0CBB61BB681B0C7B61BA69FB691343F7
:10933000A022D2051A43FB689A627A69FB6913433B
:10934000D02212061A43FB689A627B68DB780122FE
:109350005340DBB2002B1AD0FA698023DB021340A2
:109360000AD07B689B78012B03D1FB68BA689A61AD
:1093700002E0FB68BA685A617B685B78012B03D016
:109380007B685B78022B02D1FB68BA689A60C046A2
:10939000BD4608B080BDC046FFFFFBFF80B584B06E
:1093A00000AF02003960FB1D1A70FB1D1B7818000E
:1093B0000A4B98470300FB60FB1D1B781F221340DC
:1093C00001229A401300BB603A68B968FB68180034
:1093D000034B9847C046BD4604B080BD2D920000A7
:1093E0008D92000080B500AF0B4B98470B4B984710
:1093F0000B4B98470B4B984703E00B4B9847094B97
:1094000098470A4B1B889BB2002BF6D1084B984714
:10941000084B9847EEE7C04669AA000055AA00002D
:10942000956200006196000035950000680B0020F1
:10943000AD6200007596000080B584B000AF0200F8
:10944000FB1D1A701A4B9B69FB60FA68F0231B0125
:109450001340FB60FB681B0AFB60FB68022B05D80E
:10946000144A5368C02189000B435360FB1D1B78CD
:10947000002B16DB022B02DD032B0BD011E00E4B71
:109480000D4A126904218A431A610C4AFB1D1B789C
:10949000537008E0084B084A126904210A431A6114
:1094A00001E0172300E000231800BD4604B080BD92
:1094B000002000410040004100ED00E000040040B9
:1094C00080B500AFBFF34F8F30BFC046BD4680BDF3
:1094D00080B500AF0D4B98470D4B98470D4B984703
:1094E00001200D4B98470D4B98470D4B98470D4B5E
:1094F00098470D4B9847C8235B00002118000B4B81
:1095000098470B4B9847C046BD4680BD7DBA0000CA
:109510005997000039990000559900005D8C0000B2
:1095200039850000C5B40000C9B8000009B00000CA
:10953000759A000080B500AF3F4A1388DB05DB0D4C
:1095400013803D4B1B88DB07DB0FDBB2012B04D103
:10955000394A138801218B431380374B1B889B07A3
:10956000DB0FDBB2012B04D1334A138802218B437A
:109570001380314B1B885B07DB0FDBB2012B04D15F
:109580002D4A138804218B4313802B4B1B88DB0649
:10959000DB0FDBB2012B06D1274A138810218B4346
:1095A0001380264B9847244B1B889B06DB0FDBB2AE
:1095B000012B06D1204A138820218B431380204B96
:1095C00098471D4B1B881B07DB0FDBB2012B06D115
:1095D000194A138808218B4313801A4B9847164B5E
:1095E0001B885B06DB0FDBB2012B06D1124A138806
:1095F00040218B431380144B98470F4B1B881B064D
:10960000DB0FDBB2012B04D10B4A138880218B4383
:109610001380094B1B88DB05DB0FDBB2012B07D165
:10962000054A138809490B401380094B9847C046E7
:10963000C046BD4680BDC046680B0020E9690000F9
:10964000DD6A0000999F000095AC0000FFFEFFFF5F
:109650005596000080B500AFC046BD4680BD0000F5
:1096600080B500AF024B9847C046BD4680BDC0469E
:109670008199000080B500AF72B6BFF35F8F174BC2
:1096800000221A70164B1B889BB2002B0CD1154B75
:10969000984703001A0001235340DBB2002B03D08C
:1096A0000320114B98470DE00D4B1B88DB07DB0FA8
:1096B000DBB2002B03D000200B4B984702E00220C6
:1096C000094B9847054B01221A70BFF35F8F62B6B2
:1096D000064B9847C046BD4680BDC04638000020B6
:1096E0006C0B0020DD8C000039940000C194000058
:1096F00080B500AF034B98470220034B9847C04604
:10970000BD4680BDB1B400005599000080B500AFE2
:10971000024B9847C046BD4680BDC04679850000D3
:1097200080B582B000AF0200FB1D1A70BB1D0A1C81
:109730001A70FB1D1B789B00DAB2BB1D1B78D31877
:10974000DBB20333DBB21800024B9847C046BD467C
:1097500002B080BD5599000080B500AF0D4B0022CE
:109760001A700D4B98470D4B98470D4A0D4B110041
:1097700018000D4B98470D490A4B102218000C4B4E
:109780009847031E03D1034B01221A70C046C046FE
:10979000BD4680BD8C050020E19700003D9800008B
:1097A000A42001007C050020D1D900006C05002018
:1097B0005D1B010080B500AF0649074B1022180061
:1097C000064B984703005A425341DBB21800BD468E
:1097D00080BDC0466C0500207C0500205D1B01009B
:1097E00080B582B000AF0F4B7B600F4B3B600F4BDF
:1097F0007A6812681A600E4A3B68191D39601B6846
:1098000013600C4A3B68191D39601B6813600A4AD3
:109810003B68191D39601B681360C046BD4602B025
:1098200080BDC0460CA0800040A080006C050020D8
:1098300070050020740500207805002080B582B0F6
:1098400000AF8023DB017B600D4A7B68191D7960C6
:109850001B6813600B4A7B68191D79601B681360D5
:10986000094A7B68191D79601B681360074A7B6889
:10987000191D79601B681360C046BD4602B080BDEB
:109880007C0500208005002084050020880500203C
:1098900080B582B000AF104B1B68002B12D1EFF3E4
:1098A00010837B607B68002B09D172B6BFF35F8F9A
:1098B0000A4B00221A700A4B01221A7002E0084B70
:1098C00000221A70044B1B685A1C034B1A60C046D6
:1098D000BD4602B080BDC046900500203800002083
:1098E0009405002080B500AF0B4B1B685A1E0A4B35
:1098F0001A60094B1B68002B0AD1084B1B78DBB29E
:10990000002B05D0064B01221A70BFF35F8F62B6A1
:10991000C046BD4680BDC04690050020940500208D
:109920003800002080B582B000AF0200FB1D1A7025
:10993000C046BD4602B080BD80B500AF034B1800E5
:10994000034B9847C046BD4680BDC04698050020E1
:10995000C182000080B582B000AF0200FB1D1A700A
:10996000FB1D1A78044B11001800044B9847C046A1
:10997000BD4602B080BDC04698050020E1820000CF
:1099800080B500AF07E0084B1800084B984703006C
:109990001800074B9847044B1800064B9847031EC6
:1099A000F1D1C046BD4680BD980500204983000026
:1099B000B99900008783000090B585B000AF020020
:1099C000FB1D1A700F23FC18FB1D1B781800104B91
:1099D0009847030023700F23FB181B780D4ADB0008
:1099E000D31804331B68002B09D00F23FB181B78F6
:1099F000084ADB00D31804331B68984705E0FB1DB9
:109A00001B781800044B9847C046BD4605B090BD72
:109A10001D9A00003C0000202599000080B584B00C
:109A200000AF0200FB1D1A700F23FB1800221A70F2
:109A300014E00F23FB181A780D4BD200D35CFA1DEB
:109A400012789A4203D10F23FB181B780CE00F23E6
:109A5000FB181A780F23FB1801321A700F23FB181A
:109A60001B78092BE5D9FF231800BD4604B080BD43
:109A70003C00002080B500AF034B9847034B98474C
:109A8000C046BD4680BDC046E19A0000919A0000E4
:109A900080B582B000AF0E4B00221A700D4B002231
:109AA0001A700D4B00221A7007237B600B4A7B68EB
:109AB000D31800221A707B68002B03D07B68013B0F
:109AC0007B60F3E7C046C046BD4602B080BDC046DD
:109AD0007A0B0020790B0020780B0020700B0020FF
:109AE00080B500AF024B9847C046BD4680BDC0461A
:109AF000F59A000080B500AF044B40229A61034BF9
:109B000040225A60C046BD4680BDC0460044004168
:109B100080B582B000AF78607B6800221A70C046C2
:109B2000BD4602B080BD000080B582B000AF02002B
:109B30003960FB1D1A70FB1D1B78012B0AD0022B0C
:109B40000FD0002B14D10E4B0D4A91693A680A438D
:109B50009A610FE00A4B0A4AD1693A680A43DA610E
:109B600008E0074B064A116A3A680A431A6201E0A4
:109B7000172300E000231800BD4602B080BDC04698
:109B80000004004080B584B000AF78607B681B683B
:109B9000FB60FB689B7ADBB25BB2002B01DA01232E
:109BA00000E000231800BD4604B080BD80B584B03D
:109BB00000AF78607B681B68FB60C0467B6818005C
:109BC000074B9847031EF9D1FB681B889BB2022202
:109BD00013439AB2FB681A80C046BD4604B080BDEC
:109BE000859B000080B584B000AF78607B681B68FF
:109BF000FB60C0467B6818000A4B9847031EF9D1EA
:109C0000FB68C1229A71FB68C1221A72FB681B882B
:109C10009BB2022293439AB2FB681A80C046BD46AB
:109C200004B080BD859B000080B584B000AF786033
:109C30007B681B68FB607B6818000A4B9847C0462E
:109C40007B681800084B9847031EF9D1FB681B88F6
:109C50009BB2012213439AB2FB681A80C046BD46EC
:109C600004B080BDE59B0000859B000080B584B0FA
:109C700000AF786039607B681B68BB603B681A88FE
:109C8000BB681A803B689B78002B3AD0012B00D030
:109C90006CE0BB681B889AB2BB681A803B68DB78B3
:109CA000002B07D0BB681B889BB2802213439AB25B
:109CB000BB681A800F23FB1800221A701BE0C046F5
:109CC0007B681800334B9847031EF9D10F23FB180C
:109CD0001A783B6802329200D1580F23FB181A7889
:109CE0007B6818002C4B98470F23FB181A780F231A
:109CF000FB1801321A700F23FB181B78002BDED0E3
:109D000036E0BB681B889BB2042213439AB2BB683F
:109D10001A803B68DB78002B01D0172336E00E2336
:109D2000FB1800221A701BE0C0467B681800194B14
:109D30009847031EF9D10E23FB181A783B680232AC
:109D40009200D1580E23FB181A787B681800124B2A
:109D500098470E23FB181A780E23FB1801321A704D
:109D60000E23FB181B78012BDED901E017230DE031
:109D70003B681B79002B08D0BB685B889BB28022B4
:109D8000D20113439AB2BB685A8000231800BD4623
:109D900004B080BD859B0000C99E000080B586B0E0
:109DA00000AFF860B9607A60FB68BA681A60202179
:109DB0000020174B98471423FB181800154B9847A1
:109DC0001423FB1802221A701423FB181900042014
:109DD000114B98470420114B9847FB681800104B13
:109DE00098477B689A78FB681A717B681A79FB68D8
:109DF0005A710C4BFA681A607A68FB6811001800F7
:109E0000094B984703001800BD4606B080BDC04608
:109E1000299B0000119B000069900000AD9000009C
:109E2000299C00007C0B00206D9C000080B584B054
:109E300000AF78607B681B68BB607B685B79012240
:109E40005340DBB2002B0AD0BB681C4A5A80C04684
:109E50007B6818001A4B9847031EF9D116E0BB68BF
:109E60005B889BB21A008023DB0113400ED1BB68D4
:109E70005B889BB2134A13439AB2BB685A80C046B0
:109E80007B6818000E4B9847031EF9D17B681B793D
:109E9000002B05D0012B08D1BB681B69FB6007E0D4
:109EA000BB681B8A9BB2FB6002E00023FB60C046DC
:109EB000FB681800BD4604B080BDC0460080FFFFAF
:109EC000859B000000C0FFFF80B586B000AFF86042
:109ED000B960FB1D1A70FB681B687B61C046FB689C
:109EE00018001A4B9847031EF9D1FB681B79002B09
:109EF0000FD0012B22D1FB1D1B78012B01D9172379
:109F00001FE0FB1D1A787B6906329200B968D150B8
:109F100016E0FB1D1B78022B01D9172311E0BB684B
:109F20000B4A934201D917230BE0FB1D1A78BB683B
:109F300099B27B690C325200D15201E01A2300E041
:109F400000231800BD4606B080BDC046859B0000BA
:109F5000FFFF000080B584B000AF78600A00BB1C32
:109F60001A807B681B68FB607B681B79002B01D023
:109F700015230BE0C0467B681800064B9847031E6C
:109F8000F9D1FB68BA1C12889A8200231800BD46DA
:109F900004B080BD859B000080B500AF1F4B1B78CF
:109FA000DBB2022B0CD11E491E4B022218001E4BA5
:109FB0009847031E2ED11D4B18001D4B984729E0D2
:109FC000164B1B78DBB2072B21D11549194B072201
:109FD0001800154B9847031E03D1174B1800144B5C
:109FE00098470F49154B072218000F4B9847031E3F
:109FF00010D1134B9847031E04D0124B18000C4B82
:10A00000984707E0104B1800094B984702E0034BB4
:10A010001B78C046C046BD4680BDC046040C00202B
:10A02000840B0020B42001005D1B0100B82001005A
:10A03000B1830000C0200100C8200100D820010029
:10A04000B5970000E0200100F020010080B500AFCE
:10A05000C046BD4680BD000080B582B000AFEFF3C2
:10A0600010837B607B685A425341DBB23B6072B61F
:10A07000BFF35F8F034B00221A703B681800BD4688
:10A0800002B080BD3800002080B582B000AF78609B
:10A090007B685A1E9341DBB21800BD4602B080BDFA
:10A0A00080B582B000AF78607B681800064B984797
:10A0B000031E05D0054B01221A70BFF35F8F62B6F5
:10A0C000C046BD4602B080BD89A000003800002017
:10A0D00080B586B000AF0200FB1D1A70FB1D002288
:10A0E0001A70264B984703003B61FB1D1A780F231B
:10A0F000FB1823498A5C1A70FB1D19780F23FB1883
:10A100001A78204B49008A185200D35A7B617B6928
:10A11000402B25D1FB1D1B781B4AD35CDBB20122EF
:10A120005340DBB2002B1BD0FB1D1B78174AD35CBE
:10A13000DBB201225340DBB2002B11D0FB1D1B7898
:10A14000124A0121D154FB1D1B780F22BA18127834
:10A1500051424A41D2B21100094AD15400237B61D5
:10A160007B694022D31ABB603B691800084B9847B3
:10A17000BB681800BD4606B080BDC04659A00000AF
:10A18000A8060020A4060020AC060020B00600208F
:10A19000A1A0000080B582B000AF0200FB1D1A70C4
:10A1A000FB1D1B781800054B984703005A1E93416E
:10A1B000DBB21800BD4602B080BDC046D1A0000091
:10A1C00080B588B000AFB9607A600F23FB18021C1D
:10A1D0001A70BB68BB610F23FB1800221A700F2393
:10A1E000FB181A7842491300DB009B1ACB18063380
:10A1F0001B78092B02D17B685B007B600F23FB1867
:10A200001B7818003B4B984703001A00012353406A
:10A21000DBB2002B09D0384B1B78DBB20122534054
:10A22000DBB2002BEAD07B685DE0344B984703003B
:10A230007B610F23FB181A781323FB1830498A5CC3
:10A240001A700F23FB1818781323FB1819781023A2
:10A25000FB182C4A4000411849008A5A1A801023E2
:10A26000FB181B884022D31AFB61FA697B689A426B
:10A2700001D97B68FB610F23FB1819781323FB18A6
:10A280001A781023FB181B8849008A189201D218EB
:10A290001D4BD318FA69B96918001C4B98470F2356
:10A2A000FB1819781323FB181A78FB6998B210234E
:10A2B000FB181B88C31898B2124B49008A18520029
:10A2C000011CD1527B691800114B9847BA69FB6990
:10A2D000D318BB617A68FB69D31A7B607B68002B5B
:10A2E00000D08BE700231800BD4608B080BDC046F3
:10A2F0001C06002095A100002306002059A00000A4
:10A30000A8060020A406002024060020A91B0100A6
:10A31000A1A0000080B582B000AF786039603A68D3
:10A320007B6819000020034B984703001800BD46C6
:10A3300002B080BDC1A1000080B582B000AF074B64
:10A340007B607B681B7DDBB21A00012313405A1E21
:10A350009341DBB21800BD4602B080BD0040004111
:10A3600080B582B000AF02003960FB1D1A70FB1D82
:10A370001B78012B0AD0022B0FD0002B14D10E4BCF
:10A380000D4A91693A680A439A610FE00A4B0A4AFA
:10A39000D1693A680A43DA6108E0074B064A116A54
:10A3A0003A680A431A6201E0172300E0002318000C
:10A3B000BD4602B080BDC0460004004080B584B0F8
:10A3C00000AF78602F4BFB60042101202E4B984793
:10A3D000FB682022FF321A832C4B984703001A0097
:10A3E00001235340DBB2002B01D0052345E07B68FD
:10A3F0001B781B021A00C0239B001A407B685B7805
:10A40000DB011900FF230B401A437B689B785B003C
:10A4100019001E230B401A437B68DB789B0419004C
:10A420008023DB020B401A437B681B791B04190055
:10A43000C0239B020B401A43FB685A60FB689B6871
:10A440005B035B0FDBB21A00082393409AB2104BF8
:10A450001A80FB689B689AB20D4B5A807B685A78C9
:10A460000B4B1A71FB681B8B9BB21A0080235B009D
:10A47000134001D0102300E000231800BD4604B0B3
:10A4800080BDC0460040004161A3000039A3000028
:10A49000B406002080B586B000AFB9607A600F23A3
:10A4A000FB18021C1A703A4B1B881A00384B5B8849
:10A4B0005A43BB689A4209D2BB68364A934203D9D1
:10A4C000BB68354A934201D918235CE0334B7B616A
:10A4D0007B695B683B613B698022D2021A437B69DE
:10A4E0005A607B692022FF321A832D4B9847030064
:10A4F0001A0001235340DBB2002B04D07B693A6978
:10A500005A6005233FE00F23FB181B78452B1DD80D
:10A510009A00244BD3181B689F467B691B8B9BB208
:10A520001A0080235B00134004D07B693A695A60AB
:10A53000102328E0BB689B085A007B69DA610BE0B6
:10A54000BB689B085A007B69DA6105E07B693A6960
:10A550005A60172317E0C0460F23FB181B789BB2E5
:10A56000114A13439AB27B691A80C0460C4B984734
:10A5700003001A0001235340DBB2002BF6D17B69A4
:10A580003A695A6000231800BD4606B080BDC04637
:10A59000B4060020FF3F80000060800000400041C2
:10A5A00039A300000421010000A5FFFF80B588B099
:10A5B00000AFF860B960BB1D1A804A4B1B881A00B7
:10A5C000484B5B885A43FB689A4201D2182384E0C7
:10A5D000444B1B88013B1A00FB68134001D0182331
:10A5E0007BE0404B1B88BA1D12889A4201D9172381
:10A5F00073E03D4B7B613D4B984703001A000123FC
:10A600005340DBB2002B01D0052366E07B69384A5A
:10A610001A80C046354B984703001A000123534067
:10A62000DBB2002BF6D17B692022FF321A83FB6854
:10A630005B08FB611A23FB1800221A8032E01A2300
:10A64000FB181B88BA68D3181A781823FB181A80CD
:10A650001A23FB181A88BB1D1B88013B9A4211DA8A
:10A660001A23FB181B880133BA68D3181B781B0206
:10A670001AB21823FB1800215B5E13431AB2182389
:10A68000FB181A80FB695A1CFA615B001A00182338
:10A69000FB181B8813801A23FB181A22BA18128879
:10A6A00002321A801A23FA18BB1D12881B889A429C
:10A6B000C5D30C4B1B7901225340DBB2002B0BD0CE
:10A6C000BB1D1B883F2B07D8FB6800221900042004
:10A6D000084B9847030000E000231800BD4608B06F
:10A6E00080BDC046B40600200040004139A30000F0
:10A6F00044A5FFFF95A4000080B588B000AFF860C6
:10A70000B960BB1D1A80384B1B881A00364B5B881A
:10A710005A43FB689A4201D2182360E0324B1B88EF
:10A72000013B1A00FB68134001D0182357E02E4B61
:10A730001B88BA1D12889A4201D917234FE02B4B70
:10A740007B612B4B984703001A0001235340DBB277
:10A75000002B01D0052342E07B692022FF321A83BF
:10A76000FB685B08FB611A23FB1800221A802EE0AD
:10A77000FB695A1CFA615B001A001223FB1812884D
:10A780001A801A23FB181B88BA68D3181222BA1829
:10A790001288D2B21A701A23FB181A88BB1D1B88A4
:10A7A000013B9A420CDA1A23FB181B880133BA6862
:10A7B000D3181222BA181288120A92B2D2B21A70A0
:10A7C0001A23FB181A22BA18128802321A801A2386
:10A7D000FA18BB1D12881B889A42C9D3002318009F
:10A7E000BD4608B080BDC046B40600200040004110
:10A7F00039A3000080B584B000AF7860234B1B887C
:10A800001A00224B5B885A437B689A4201D2182374
:10A8100037E01E4B1B889B00013B1A007B681340EE
:10A8200001D018232DE01A4BFB601A4B9847030008
:10A830001A0001235340DBB2002B01D0052320E096
:10A84000FB682022FF321A837B689B085A00FB6852
:10A85000DA61FB68104A1A80C0460E4B9847030025
:10A860001A0001235340DBB2002BF6D1FB681B8B8F
:10A870009BB2DBB21A001C23134001D0042300E07A
:10A8800000231800BD4604B080BDC046B4060020B9
:10A890000040004139A3000002A5FFFF80B586B04B
:10A8A00000AF78602A4B7B617B692022FF321A83DC
:10A8B0007B699B683B613B691B0C072213400822A4
:10A8C0009A401300DAB27B681A703B699AB27B68CF
:10A8D0005A80204B1B889BB21B099AB20E23FB188F
:10A8E00007210A401A800E23FB181B88072B03D16F
:10A8F0007B6800225A600AE00E23FB181B880622A0
:10A90000D31A04229A4013001A007B685A60114B34
:10A910001B889AB20C23FB1807210A401A800C23CB
:10A92000FB181B88072B03D17B6800229A600AE082
:10A930000C23FB181B880722D31A04229A40130009
:10A940001A007B689A60C046BD4606B080BDC0460E
:10A95000004000410040800080B584B000AF02009C
:10A96000FB1D1A700F23FB18FA1D1278D2091A70FA
:10A970000E23FB18FA1D127852091A700D4BBB609A
:10A980000F23FB181B78002B0FD10F23FB181B780C
:10A990009B0010229446BC446344083B1A680E2373
:10A9A000FB181B78DB01D31800E000231800BD461C
:10A9B00004B080BD0044004180B582B000AF020009
:10A9C000FB1D1A70FB1D1B781800034B98470300F2
:10A9D0001800BD4602B080BD59A9000080B582B004
:10A9E00000AF78607B6800221A707B6801225A7081
:10A9F0007B6800229A70C046BD4602B080BD000050
:10AA000080B584B000AF0200FB1D1A70BB1D0A1C8C
:10AA10001A70FB1D1B7818000D4B98470300FB6054
:10AA2000FB1D1B781F22134001229A401300BB60BC
:10AA3000BB1D1B78002B03D0FB68BA689A6102E04B
:10AA4000FB68BA685A61C046BD4604B080BDC046C6
:10AA5000B9A9000080B500AF024B9847C046BD467B
:10AA600080BDC046D194000080B500AF094B984727
:10AA7000094B9847094B9847094B9847094B98470A
:10AA8000094B9847094B9847094B9847C046BD4624
:10AA900080BDC046B5AA0000BDE900004DA0000081
:10AAA000D1AA0000DDAA000099AB0000EDAB0000C8
:10AAB00079B4000080B500AF034B1B781800034B3E
:10AAC0009847C046BD4680BD2400002089C10000D3
:10AAD00080B500AFC046BD4680BD000080B582B0E5
:10AAE00000AF3B1D1800284B9847FB1D00221A7031
:10AAF00041E0FB1D1B78254A9B00D31801331A78CF
:10AB00003B1D1A70FB1D1B78204A9B00D318023393
:10AB10001A783B1D5A70FB1D1A781C4B9200D35CAF
:10AB20003A1D110018001A4B9847FB1D1B78174A55
:10AB30009B00D31801331B78022B08D0FB1D1B7818
:10AB4000124A9B00D31801331B78012B0ED1FB1D39
:10AB50001A780E4B9200D05CFB1D1B780B4A9B00B1
:10AB6000D31803331B7819000A4B9847FB1D1A783A
:10AB7000FB1D01321A70FB1D1B78082BB9D9C0468A
:10AB8000BD4602B080BDC046DDA900001C22010008
:10AB90006182000001AA000080B582B000AF114BB5
:10ABA00001221A70BFF35F8F62B6FB1D00221A707C
:10ABB0000BE0FB1D1B785BB2022118000A4B984783
:10ABC000FB1D1A78FB1D01321A70FB1D1B781B2B15
:10ABD000EFD900210320044B9847C046BD4602B080
:10ABE00080BDC046380000204DC4000080B582B052
:10ABF00000AFFB1D08221A7026E0174B802252017D
:10AC0000DA61164B1B78002B04D0154B1800154B3E
:10AC1000984703E0144B1800124B98470E4B8022C4
:10AC20005201DA610D4B1B78002B04D00F4B18003A
:10AC30000C4B984703E00E4B18000A4B9847FB1D3E
:10AC40001A78FB1D013A1A70FB1D1B78002BD4D11A
:10AC5000C046BD4602B080BD004400412400002033
:10AC60005316000001000020DC0B0100F742000039
:10AC70009323030080B500AF024B1B78DBB21800B2
:10AC8000BD4680BDBA06002080B500AFC046BD46B7
:10AC900080BD000080B500AF0F4BDB78012B04D0E6
:10ACA000022B0CD0002B05D010E00C4B18000C4BE5
:10ACB00098470CE00B4B18000B4B984707E0094AEC
:10ACC000064B11001800094B984700E0FEE7084BBF
:10ACD0009847C046BD4680BD300C0020340C002093
:10ACE000F5AC00003A0C00205DAD0000C5AD0000E1
:10ACF00089AC000080B582B000AF7860154B0722A8
:10AD000019000020144B9847124B5B781B021AB2B3
:10AD1000104B9B781BB213431AB27B681A800D4B01
:10AD2000DB781B021AB20B4B1B791BB213431AB20E
:10AD30007B685A80074B5B791B021AB2054B9B79E3
:10AD40001BB213431AB27B689A80C046BD4602B05C
:10AD500080BDC046180C002071AE000080B582B0E6
:10AD600000AF7860154B072219003220144B98472A
:10AD7000124B5B781B021AB2104B9B781BB2134329
:10AD80001AB27B681A800D4BDB781B021AB20B4B90
:10AD90001B791BB213431AB27B685A80074B5B794D
:10ADA0001B021AB2054B9B791BB213431AB27B6884
:10ADB0009A80C046BD4602B080BDC046180C002037
:10ADC00071AE000080B582B000AF78603960264B6C
:10ADD0000D2219000020254B9847234B5B781B025E
:10ADE0001AB2214B9B781BB213431AB27B681A80AC
:10ADF0001D4BDB781B021AB21B4B1B791BB2134392
:10AE00001AB27B685A80184B5B791B021AB2164B38
:10AE10009B791BB213431AB27B689A80124BDB7981
:10AE20001B021AB2104B1B7A1BB213431AB23B68B7
:10AE30001A800D4B5B7A1B021AB20B4B9B7A1BB22A
:10AE400013431AB23B685A80074BDB7A1B021AB2D3
:10AE5000054B1B7B1BB213431AB23B689A80C0465A
:10AE6000BD4602B080BDC046180C002071AE000087
:10AE700080B582B000AF39601100FB1D021C1A7052
:10AE8000BB1D0A1C1A70BB1D1A783968FB1D1B7884
:10AE90001800034B9847C046BD4602B080BDC0466F
:10AEA000D9BA000080B584B000AF78607B681B68B9
:10AEB000FB60FB68DB69072213405A1E9341DBB23B
:10AEC0001800BD4604B080BD80B582B000AF786088
:10AED000C0467B681800044B9847031EF9D1C04652
:10AEE000BD4602B080BDC046A5AE000080B582B0B0
:10AEF00000AF78607B6864221A607B681B4A5A60E6
:10AF00007B6800229A607B6800221A737B680022AB
:10AF10001A767B68802292031A617B680122524272
:10AF2000DA827B68012252429A827B680022DA61CF
:10AF30007B6800221A627B682422002199547B6876
:10AF400000229A627B682C22002199547B682D2272
:10AF5000002199547B682E22002199547B68D722C6
:10AF60001A86C046BD4602B080BDC046480D0000EE
:10AF700080B584B000AF78607B681B68BB6000233D
:10AF8000FB607B681800104B9847BB681B68022267
:10AF90001A43BB681A600CE0FB680133FB607B68F6
:10AFA000DB881A00FB689A4203D8BB6810225A83D8
:10AFB00006E0BB685B8B9BB21A0010231340EBD0FA
:10AFC000BD4604B080BDC046C9AE000080B584B0A7
:10AFD00000AF78607B681B68FB607B681800094BDA
:10AFE0009847FB6883221A75FB6883221A76FB68F0
:10AFF0001B68022293431A00FB681A60C046BD46D4
:10B0000004B080BDC9AE000080B590B000AF0200B2
:10B01000BB1D1A807B1D0A1C1A700C23FB1818001C
:10B020001E4B98470C23FB1800221A73BB1D1A886D
:10B030000C23FB181A600C23FB186422DA820C2301
:10B04000FB1864229A820C23FB18154ADA610C2340
:10B05000FB18144A1A62144B00221A707B1D1B78CD
:10B06000002B07D0104B01221A700C23FB182C2246
:10B07000012199540D4B9847031E0AD00C23FA184E
:10B080000B490C4B18000C4B98470A4B18000B4B04
:10B09000984700231800BD4610B080BDEDAE0000FB
:10B0A0000200100002001100400C0020B5970000C3
:10B0B000000C0042440C002075DF0000CDAF000002
:10B0C00080B500AF034B1800034B9847C046BD4600
:10B0D00080BDC046440C002045E0000080B500AFB4
:10B0E000034B1800034B9847C046BD4680BDC04681
:10B0F000440C002071AF000080B500AF034B180076
:10B10000034B9847C046BD4680BDC046440C002056
:10B11000CDAF000080B500AF024B1B781800BD46D4
:10B1200080BDC046400C002090B585B000AF040043
:10B13000396010001900FB1D221C1A70BB1D021C77
:10B140001A707B1D0A1C1A70FB1D1B789AB2284BC3
:10B150001A80BB1D1B789AB2254B5A80244B3A6843
:10B160005A600C23FB1800221A807B1D1B78002BD1
:10B170001BD00F23FC181E4A1E4B110018001E4B3B
:10B180009847030023700F23FB181B78002B27D050
:10B190000C23FB180C22BA18128801321A800C23D7
:10B1A000FB181B88092BE4D91AE00F23FC18104A5E
:10B1B000104B11001800114B9847030023700F2308
:10B1C000FB181B78002B0BD00C23FB180C22BA1891
:10B1D000128801321A800C23FB181B88092BE4D932
:10B1E0000F23FB181B781800BD4605B090BDC04664
:10B1F0008C000020440C0020DDE500000DE600007E
:10B2000090B585B000AF0400396010001900FB1D37
:10B21000221C1A70BB1D021C1A707B1D0A1C1A709E
:10B22000FB1D1B789AB2284B1A80BB1D1B789AB263
:10B23000254B5A80244B3A685A600C23FB18002295
:10B240001A807B1D1B78002B1BD00F23FC181E4A75
:10B250001E4B110018001E4B9847030023700F234C
:10B26000FB181B78002B27D00C23FB180C22BA18D4
:10B27000128801321A800C23FB181B88092BE4D991
:10B280001AE00F23FC18104A104B11001800114B44
:10B290009847030023700F23FB181B78002B0BD05B
:10B2A0000C23FB180C22BA18128801321A800C23C6
:10B2B000FB181B88092BE4D90F23FB181B781800F7
:10B2C000BD4605B090BDC0468C000020440C002057
:10B2D00005E4000035E40000B0B582B000AF020024
:10B2E0003960FB1D1A70FB1D1B787F2B32D92F4C48
:10B2F000FB1D1B781A000F231340083B99082B4AAB
:10B30000FB1D1B7818000F230340083B9B080633E6
:10B310009B00D31804331B68FA1D12781000032217
:10B320000240D200FF2090400200D2431A403B6806
:10B330009B01FF201840FB1D1B781D0003232B40A1
:10B34000DB00984003001A438B1D9B00E318043375
:10B350001A6027E0164CFB1D1B785BB29B08144952
:10B36000FA1D127852B29208C03292005258F91D5A
:10B370000978080003210140C900FF20884001002E
:10B38000C94311403A689201FF201040FA1D12781B
:10B39000150003222A40D200904002000A43C03325
:10B3A0009B001A51C046BD4602B0B0BD00ED00E0A2
:10B3B00000E100E080B582B000AF78607B68013BBF
:10B3C0000C4A934201D9012310E00B4B7A68013AF1
:10B3D0005A6001235B4203211800084B9847064B33
:10B3E00000229A60044B07221A6000231800BD4611
:10B3F00002B080BDFFFFFF0010E000E0D9B2000006
:10B4000080B500AF0020074B98470200064B64212F
:10B410001000984703001800044B9847C046BD46EB
:10B4200080BDC046D591000091FE0000B5B300007C
:10B4300080B500AF024B9847C046BD4680BDC046B0
:10B440000D97000080B582B000AF78607B68002265
:10B450001A707B6801225A707B6804229A707B689C
:10B460000C22DA707B6800221A717B6800225A7104
:10B47000C046BD4602B080BD80B582B000AF3B0083
:10B480001800094B98473B0001225A703B000222EA
:10B490009A703B000C22DA703B001800034B98476F
:10B4A000C046BD4602B080BD45B40000E9E60000DC
:10B4B00080B500AF024B9847C046BD4680BDC04630
:10B4C00061E8000080B500AF044B9847044B9847F3
:10B4D000044B9847C046BD4680BDC0461DB600001F
:10B4E00041B500000DB8000080B584B000AF020087
:10B4F000FB1D1A70FB1D1A78104BD200D3589847C9
:10B5000003001A000F23FB181A70FB1D1B780B4A4F
:10B51000DB00D31804331B78012B08D10F23FB1851
:10B520001B785A425341DAB20F23FB181A700F23CB
:10B53000FB181B781800BD4604B080BD74200100C4
:10B5400090B583B002AF074B9847074A07480023DE
:10B550000093130001220121054CA047C046BD46BF
:10B5600001B090BD75B50000E9B50000540C002095
:10B570009985000080B500AF064B1B78002B05D0E5
:10B58000044B5B781800044B9847C046C046BD4644
:10B5900080BDC046540C0020D586000090B583B015
:10B5A00002AF0C4B1B78002B04D00A4B5B781800C1
:10B5B000094B9847094A07480023009313000022CB
:10B5C0001421074CA047074B01221A70C046BD4604
:10B5D00001B090BD580C0020D586000001B60000D7
:10B5E00099850000500C002080B582B000AF7860D3
:10B5F000024B9847C046BD4602B080BDA9B60000C8
:10B6000080B582B000AF7860034B00221A70C0464C
:10B61000BD4602B080BDC046500C002080B582B04F
:10B6200000AFFB1D00221A7034E0FB1D1A781D4B81
:10B63000D200D35800221A80FB1D1A78194BD20071
:10B64000D35800225A80FB1D1A78164BD200D358CB
:10B6500000225A60FB1D1A78124BD200D3580022E8
:10B660009A60FB1D1A780F4BD200D358FA1D12783E
:10B670000C49D2008A18043212681A61FB1D1A782C
:10B68000084BD200D35804221A73FB1D1A78FB1DF5
:10B6900001321A70FB1D1B78012BC6D9C046BD466E
:10B6A00002B080BD2800002090B583B000AFFB1D24
:10B6B00000221A705DE0FB1D1A784D4BD200D45861
:10B6C000FB1D1B7818004B4B984703009BB223804F
:10B6D000FB1D1A78464BD200D3581B88002B11D182
:10B6E000FB1D1A78424BD200D3585B681B881A00A6
:10B6F0000123134006D1FB1D1A783D4BD200D358CD
:10B7000002221A80FB1D1A78394BD200D3581B88AD
:10B71000012B11D1FB1D1A78354BD200D3585B6831
:10B720001B881A000123134006D0FB1D1A78304BEA
:10B73000D200D35803221A80FB1D1A782C4BD2005A
:10B74000D35818002C4B9847031E0DD0FB1D1A78B8
:10B75000274BD200D3585B681B88DAB2FB1D1B78DD
:10B7600011001800254B9847FB1DFA1D1278013275
:10B770001A70FB1D1B78012B9DD9214B1B78002BC8
:10B7800030D1BB1D00221A70FB1D00221A701BE075
:10B79000FB1D1A78164BD200D3585B681B88032B0D
:10B7A00008D0FB1D1A78124BD200D3585B681B8857
:10B7B000022B04D1BB1D1A78BB1D01321A70FB1D70
:10B7C0001A78FB1D01321A70FB1D1B78012BDFD983
:10B7D000BB1D1B78022B07D10A4B98470A4B984791
:10B7E000C04601E0C04600E0C046BD4603B090BD83
:10B7F00028000020E9B4000039B9000021970000BA
:10B80000500C002075B50000A1B8000080B584B0D0
:10B8100000AF3B1D05221A603B1D00225A603B1DF4
:10B8200001221A723B1D0322DA723B1D01225A7259
:10B830003B1D00229A723B1D19000520094B9847B9
:10B840003B1D06221A603B1D00225A603B1D002250
:10B850001A723B1D19000620024B9847C046BD4690
:10B8600004B080BDC1EA000080B500AF084B1B7872
:10B8700001225340DBB2002B06D0064B9847064B03
:10B880009847064B9847C046C046BD4680BDC04657
:10B89000500C0020B5B800009DB5000041B5000077
:10B8A00080B500AF024B9847C046BD4680BDC0463C
:10B8B0007DC5000080B500AF024B9847C046BD462D
:10B8C00080BDC046C1C5000080B582B000AFFB1D81
:10B8D00000221A7025E0FB1D1A7816491300DB00C0
:10B8E0009B1A9B00CB18193300221A70FB1D1A7883
:10B8F00010491300DB009B1A9B00CB181733002262
:10B900001A70FB1D1A780B491300DB009B1A9B0071
:10B91000CB18103300221A60FB1D1A78FB1D013270
:10B920001A70FB1D1B78012BD5D9C046BD4602B04D
:10B9300080BDC0465C0C002080B584B000AF78604C
:10B940000B23FB1800221A707B689B68002B28D001
:10B950007B689A687B681B8819001000374B9847F2
:10B9600003001A0001235340DBB2002B03D07B6895
:10B9700000229A605BE07B685B88013B9AB27B683F
:10B980005A807B685B88002B51D17B689A687B6802
:10B990005A607B6800229A600B23FB1801221A7000
:10B9A00045E07B685B68002B0ED07B685A687B683B
:10B9B0001B8819001000214B984703001A0001232F
:10B9C0005340DBB2002B32D00023FB6002E0FB6867
:10B9D0000133FB607B681B7B1A00FB689A4211DD18
:10B9E0007B681A69FB68DB00D2187B681B8819002A
:10B9F0001000124B984703001A0001235340DBB29A
:10BA0000002BE4D17B681B7B1A00FB689A420EDD99
:10BA10007B681A69FB68DB00D3185A887B685A80F8
:10BA20007B681A69FB68DB00D2187B689A600B237D
:10BA3000FB181B781800BD4604B080BD41BA000059
:10BA400080B582B000AF78600A00BB1C1A807B68AA
:10BA5000DB88BA1C12889A4207D87B689B88BA1C7C
:10BA600012889A4201D3012300E000231A1C01230B
:10BA70001340DBB21800BD4602B080BD80B500AFF8
:10BA8000044B9847044B19000020044B9847C046CC
:10BA9000BD4680BDA1BA0000BC060020F5FD000037
:10BAA00090B583B000AFFC1D094B9847030023708D
:10BAB000FB1D1B78162B07D0FB1D1B78002B03D01A
:10BAC000044B9847024B9847C046BD4603B090BD13
:10BAD000E9FC0000D1FD000090B585B000AF3960F1
